{"contracts/JinkFarm.sol":{"JinkFarm":{"abi":[{"inputs":[{"internalType":"address","name":"_rewardToken","type":"address"},{"internalType":"uint256","name":"_rewardPerSecond","type":"uint256"},{"internalType":"uint256","name":"_startTime","type":"uint256"},{"internalType":"uint256","name":"_duration","type":"uint256"}],"stateMutability":"nonpayable","type":"constructor"},{"inputs":[{"internalType":"address","name":"owner","type":"address"}],"name":"OwnableInvalidOwner","type":"error"},{"inputs":[{"internalType":"address","name":"account","type":"address"}],"name":"OwnableUnauthorizedAccount","type":"error"},{"inputs":[],"name":"ReentrancyGuardReentrantCall","type":"error"},{"inputs":[{"internalType":"address","name":"token","type":"address"}],"name":"SafeERC20FailedOperation","type":"error"},{"anonymous":false,"inputs":[{"indexed":true,"internalType":"address","name":"user","type":"address"},{"indexed":true,"internalType":"uint256","name":"pid","type":"uint256"},{"indexed":false,"internalType":"uint256","name":"amount","type":"uint256"}],"name":"Deposit","type":"event"},{"anonymous":false,"inputs":[{"indexed":false,"internalType":"uint256","name":"amount","type":"uint256"},{"indexed":false,"internalType":"uint256","name":"newEndTime","type":"uint256"}],"name":"Funded","type":"event"},{"anonymous":false,"inputs":[{"indexed":true,"internalType":"address","name":"user","type":"address"},{"indexed":true,"internalType":"uint256","name":"pid","type":"uint256"},{"indexed":false,"internalType":"uint256","name":"reward","type":"uint256"}],"name":"Harvest","type":"event"},{"anonymous":false,"inputs":[{"indexed":true,"internalType":"address","name":"previousOwner","type":"address"},{"indexed":true,"internalType":"address","name":"newOwner","type":"address"}],"name":"OwnershipTransferred","type":"event"},{"anonymous":false,"inputs":[{"indexed":true,"internalType":"uint256","name":"pid","type":"uint256"},{"indexed":true,"internalType":"address","name":"lpToken","type":"address"},{"indexed":false,"internalType":"uint256","name":"allocPoint","type":"uint256"}],"name":"PoolAdded","type":"event"},{"anonymous":false,"inputs":[{"indexed":true,"internalType":"uint256","name":"pid","type":"uint256"},{"indexed":false,"internalType":"uint256","name":"allocPoint","type":"uint256"}],"name":"PoolUpdated","type":"event"},{"anonymous":false,"inputs":[{"indexed":false,"internalType":"uint256","name":"newRate","type":"uint256"}],"name":"RewardRateUpdated","type":"event"},{"anonymous":false,"inputs":[{"indexed":true,"internalType":"address","name":"user","type":"address"},{"indexed":true,"internalType":"uint256","name":"pid","type":"uint256"},{"indexed":false,"internalType":"uint256","name":"amount","type":"uint256"}],"name":"Withdraw","type":"event"},{"inputs":[{"internalType":"uint256","name":"allocPoint","type":"uint256"},{"internalType":"address","name":"lpToken","type":"address"},{"internalType":"bool","name":"withUpdate","type":"bool"}],"name":"addPool","outputs":[],"stateMutability":"nonpayable","type":"function"},{"inputs":[{"internalType":"uint256","name":"_pid","type":"uint256"},{"internalType":"uint256","name":"_amount","type":"uint256"}],"name":"deposit","outputs":[],"stateMutability":"nonpayable","type":"function"},{"inputs":[],"name":"endTime","outputs":[{"internalType":"uint256","name":"","type":"uint256"}],"stateMutability":"view","type":"function"},{"inputs":[{"internalType":"uint256","name":"amount","type":"uint256"}],"name":"fund","outputs":[],"stateMutability":"nonpayable","type":"function"},{"inputs":[{"internalType":"uint256","name":"_pid","type":"uint256"}],"name":"harvest","outputs":[],"stateMutability":"nonpayable","type":"function"},{"inputs":[],"name":"massUpdatePools","outputs":[],"stateMutability":"nonpayable","type":"function"},{"inputs":[],"name":"owner","outputs":[{"internalType":"address","name":"","type":"address"}],"stateMutability":"view","type":"function"},{"inputs":[{"internalType":"uint256","name":"_pid","type":"uint256"},{"internalType":"address","name":"_user","type":"address"}],"name":"pendingReward","outputs":[{"internalType":"uint256","name":"","type":"uint256"}],"stateMutability":"view","type":"function"},{"inputs":[{"internalType":"uint256","name":"","type":"uint256"}],"name":"poolInfo","outputs":[{"internalType":"contract IERC20","name":"lpToken","type":"address"},{"internalType":"uint256","name":"allocPoint","type":"uint256"},{"internalType":"uint256","name":"lastRewardTime","type":"uint256"},{"internalType":"uint256","name":"accRewardPerShare","type":"uint256"},{"internalType":"uint256","name":"totalDeposited","type":"uint256"}],"stateMutability":"view","type":"function"},{"inputs":[],"name":"poolLength","outputs":[{"internalType":"uint256","name":"","type":"uint256"}],"stateMutability":"view","type":"function"},{"inputs":[],"name":"renounceOwnership","outputs":[],"stateMutability":"nonpayable","type":"function"},{"inputs":[{"internalType":"address","name":"token","type":"address"},{"internalType":"uint256","name":"amount","type":"uint256"}],"name":"rescueTokens","outputs":[],"stateMutability":"nonpayable","type":"function"},{"inputs":[],"name":"rewardPerSecond","outputs":[{"internalType":"uint256","name":"","type":"uint256"}],"stateMutability":"view","type":"function"},{"inputs":[],"name":"rewardToken","outputs":[{"internalType":"contract IERC20","name":"","type":"address"}],"stateMutability":"view","type":"function"},{"inputs":[{"internalType":"uint256","name":"pid","type":"uint256"},{"internalType":"uint256","name":"allocPoint","type":"uint256"},{"internalType":"bool","name":"withUpdate","type":"bool"}],"name":"setPool","outputs":[],"stateMutability":"nonpayable","type":"function"},{"inputs":[{"internalType":"uint256","name":"newRate","type":"uint256"}],"name":"setRewardPerSecond","outputs":[],"stateMutability":"nonpayable","type":"function"},{"inputs":[],"name":"startTime","outputs":[{"internalType":"uint256","name":"","type":"uint256"}],"stateMutability":"view","type":"function"},{"inputs":[],"name":"totalAllocPoint","outputs":[{"internalType":"uint256","name":"","type":"uint256"}],"stateMutability":"view","type":"function"},{"inputs":[{"internalType":"address","name":"newOwner","type":"address"}],"name":"transferOwnership","outputs":[],"stateMutability":"nonpayable","type":"function"},{"inputs":[{"internalType":"uint256","name":"pid","type":"uint256"}],"name":"updatePool","outputs":[],"stateMutability":"nonpayable","type":"function"},{"inputs":[{"internalType":"uint256","name":"_pid","type":"uint256"},{"internalType":"address","name":"_user","type":"address"}],"name":"userInfo","outputs":[{"internalType":"uint256","name":"amount","type":"uint256"},{"internalType":"uint256","name":"rewardDebt","type":"uint256"}],"stateMutability":"view","type":"function"},{"inputs":[{"internalType":"uint256","name":"_pid","type":"uint256"},{"internalType":"uint256","name":"_amount","type":"uint256"}],"name":"withdraw","outputs":[],"stateMutability":"nonpayable","type":"function"}],"evm":{"bytecode":{"linkReferences":{},"object":"60803461016057601f61129738819003918201601f19168301916001600160401b03831184841017610165578084926080946040528339810103126101605780516001600160a01b039081811690819003610160576020830151606060408501519401519160017f9b779b17422d0df92223018b32b4d1fa46e071723d6817e2486d003becc55f005533156101475760008054336001600160a01b0319808316821784556040519397909392167f8be0079c531659141344cd1fd0a4f28419497f9722a3daafe3b4186f6b6457e08880a3821561011657506001541617600155600255826003558201809211610102575060045560405161111b908161017c8239f35b634e487b7160e01b81526011600452602490fd5b62461bcd60e51b815260206004820152600c60248201526b5a65726f206164647265737360a01b6044820152606490fd5b604051631e4fbdf760e01b815260006004820152602490fd5b600080fd5b634e487b7160e01b600052604160045260246000fdfe608060408181526004918236101561001657600080fd5b600092833560e01c918263081e3eda14610c19575081631526fe2714610bb357816317caf6f114610b945781633197cbb614610b76578163441a3e7014610a4d57816346ca6bea146109a857816351eb05a61461098b57816357376198146108da578163630b5ba1146108be57816366da581514610868578163715018a61461080e57816378e97925146107ef5781637abceffd146105dc5781638da5cb5b146105b45781638f10369a1461059557816393f1a40b1461054a57816398969e82146103f5578163ca1d209d14610338578163ddc63262146102b6578163e2bbb158146101cd578163f2fde38b14610142575063f7c618c11461011757600080fd5b3461013e578160031936011261013e5760015490516001600160a01b039091168152602090f35b5080fd5b9050346101c95760203660031901126101c95761015d610cb0565b9061016661102c565b6001600160a01b039182169283156101b357505082546001600160a01b0319811683178455167f8be0079c531659141344cd1fd0a4f28419497f9722a3daafe3b4186f6b6457e08380a380f35b51631e4fbdf760e01b8152908101849052602490fd5b8280fd5b919050346101c9576101de36610c86565b9190926101e9610e37565b600164e8d4a5100061023b6101fd87610c35565b508789526007602052858920338a526020528589209461021c89610d3f565b61022786338b610e67565b8761027e575b506003855491015490610cff565b04910155519081527f90890809c654f11d6e72a28fa60149770a0d11ec6c92319d6ceb2bb0a4ea1a1560203392a360016000805160206110c68339815191525580f35b61029488868060a01b0384541630903390611058565b61029f888754610d32565b865581016102ae888254610d32565b90553861022d565b9050346101c95760203660031901126101c95764e8d4a5100061031f60019235936102df610e37565b6103126102eb86610c35565b5091868852600760205280882033895260205287208661030b8298610d3f565b3390610e67565b6003855491015490610cff565b0491015560016000805160206110c68339815191525580f35b83833461013e57602036600319011261013e57823561035561102c565b600254156103c35760015492937fa1dd612b9278fe0bb5d89ed1f642dc3678d0e558630c5a4a8df212ba2197cdb49361039c908390309033906001600160a01b0316611058565b6103b26103ab60025484610d12565b8254610d32565b80915582519182526020820152a180f35b815162461bcd60e51b8152602081860152600c60248201526b14985d19481b9bdd081cd95d60a21b6044820152606490fd5b8284346105475781600319360112610547578235610411610cc6565b61041a82610c35565b5091835260076020528383209060018060a01b031683526020528282209160038201549160028101548042118061053b575b80610530575b610482575b60208661047b87600164e8d4a510006104718a8454610cff565b0491015490610cdc565b9051908152f35b865480421060001461052b5750425b81811161049f575b50610457565b6104bb6104b26104cf936104c693610cdc565b60025490610cff565b600184015490610cff565b60055490610d12565b9164e8d4a5100092838102938185041490151715610518575061047161051161047b959461050b60019560209a64e8d4a5100096015490610d12565b90610d32565b9394610499565b634e487b7160e01b815260118752602490fd5b610491565b506005541515610452565b5086820154151561044c565b80fd5b9050346101c957816003193601126101c957918192610567610cc6565b9035825260076020528282209060018060a01b03168252602052206001815491015482519182526020820152f35b50503461013e578160031936011261013e576020906002549051908152f35b50503461013e578160031936011261013e57905490516001600160a01b039091168152602090f35b9050346101c95760603660031901126101c95780356105f9610cc6565b92610602610ca1565b9361060b61102c565b6001600160a01b039081169485156107bd578160015416861461077a5761076d575b600354804211600014610767575042905b61064a84600554610d32565b60055582519160a0830183811067ffffffffffffffff8211176107545784528683526020830190858252848401908152606084019189835260808501938a855260065468010000000000000000811015610741578060016106ae9201600655610c35565b96909661072f575186546001600160a01b0319169116178555516001850155516002840155516003830155519084015560065460001981019390841161071c57507f6c5d0ef1d0199b6de41ecbce95f59643be4d723ca363faf92d756e61e82fb13e9160209151908152a380f35b634e487b7160e01b865260119052602485fd5b634e487b7160e01b8c528b8a5260248cfd5b634e487b7160e01b8c5260418a5260248cfd5b634e487b7160e01b895260418752602489fd5b9061063e565b610775610e14565b61062d565b825162461bcd60e51b8152602081870152601960248201527f43616e6e6f74207374616b652072657761726420746f6b656e000000000000006044820152606490fd5b825162461bcd60e51b8152602081870152600c60248201526b5a65726f206164647265737360a01b6044820152606490fd5b50503461013e578160031936011261013e576020906003549051908152f35b833461054757806003193601126105475761082761102c565b80546001600160a01b03198116825581906001600160a01b03167f8be0079c531659141344cd1fd0a4f28419497f9722a3daafe3b4186f6b6457e08280a380f35b9050346101c95760203660031901126101c9577f41d466ebd06fb97e7786086ac8b69b7eb7da798592036251291d34e9791cde019160209135906108aa61102c565b6108b2610e14565b8160025551908152a180f35b83346105475780600319360112610547576108d7610e14565b80f35b8391503461013e578260031936011261013e57916108f6610cb0565b9060249361090261102c565b600654946001600160a01b0393841692855b87811061092e57866108d787876024359184541690610fab565b848661093983610c35565b5054161461094957600101610914565b815162461bcd60e51b81526020818601526017818501527f43616e6e6f742072657363756520616374697665204c500000000000000000006044820152606490fd5b83903461013e57602036600319011261013e576108d79035610d3f565b9050346101c95760603660031901126101c95760207f7fa9647ec1cc14e3822b46d05a2b9d4e019bde8875c0088c46b6503d71bf1722913592602435906109ed610ca1565b6109f561102c565b15610a3f57610a02610e14565b610a2582610a206005546001610a178a610c35565b50015490610cdc565b610d32565b600555816001610a3487610c35565b50015551908152a280f35b610a4885610d3f565b610a02565b919050346101c957610a5e36610c86565b919092610a69610e37565b610a7284610c35565b5084865260076020528286203387526020528286209184835410610b3c57610ac460019264e8d4a5100092610aa689610d3f565b610ab186338b610e67565b87610b0757506003855491015490610cff565b04910155519081527ff279e6a1f5e320cca91135676d9cb6e44ca8a08c0b88342bcdb1144f6511b56860203392a360016000805160206110c68339815191525580f35b610b12888754610cdc565b86558101610b21888254610cdc565b9055610b368733868060a01b03845416610fab565b3861022d565b606490602085519162461bcd60e51b83528201526014602482015273496e73756666696369656e742062616c616e636560601b6044820152fd5b9050346101c957826003193601126101c95760209250549051908152f35b50503461013e578160031936011261013e576020906005549051908152f35b919050346101c95760203660031901126101c9578135926006548410156105475750610be060a093610c35565b50600180851b03815416926001820154926002830154916003840154930154938151958652602086015284015260608301526080820152f35b84903461013e578160031936011261013e576020906006548152f35b600654811015610c70576005906006600052027ff652222313e28459528d920b65115c16c04f3efc82aaedc97be59f3f377c0d3f0190600090565b634e487b7160e01b600052603260045260246000fd5b6040906003190112610c9c576004359060243590565b600080fd5b604435908115158203610c9c57565b600435906001600160a01b0382168203610c9c57565b602435906001600160a01b0382168203610c9c57565b91908203918211610ce957565b634e487b7160e01b600052601160045260246000fd5b81810292918115918404141715610ce957565b8115610d1c570490565b634e487b7160e01b600052601260045260246000fd5b91908201809211610ce957565b610d4890610c35565b5060028101908154421115610e1057600481015480158015610e06575b8015610dfa575b610df357600454804210600014610dee5750425b835490818111610d94575b50505050429055565b610da76104b2610db2936104c693610cdc565b600185015490610cff565b9064e8d4a5100091828102928184041490151715610ce957610dd9600391610de393610d12565b9201918254610d32565b905538808080610d8b565b610d80565b5050429055565b50600182015415610d6c565b5060055415610d65565b5050565b60065460005b818110610e25575050565b80610e31600192610d3f565b01610e1a565b6000805160206110c68339815191526002815414610e555760029055565b604051633ee5aeb560e01b8152600490fd5b91610e8090600164e8d4a5100061047161022d87610c35565b80610e8a57505050565b6001546040516370a0823160e01b81523060048201526001600160a01b03929091831690602083602481855afa908115610f9f578593600092610f1c575b507f71bab65ced2e5750775a0613be067df48ef06cf92a496ebf7663ae0660924954949260209492610f0792818111600014610f125750968791610fab565b6040519485521692a3565b9050968791610fab565b919092935060203d602011610f98575b601f8101601f1916830167ffffffffffffffff811184821017610f84576020918491604052810103126105475750518492917f71bab65ced2e5750775a0613be067df48ef06cf92a496ebf7663ae0660924954610ec8565b634e487b7160e01b83526041600452602483fd5b503d610f2c565b6040513d6000823e3d90fd5b60405163a9059cbb60e01b60009081526001600160a01b039384166004526024949094529260209060448180855af160016000511481161561100c575b8360405215610ff657505050565b635274afe760e01b835216600482015260249150fd5b600181151661102257813b15153d151616610fe8565b833d6000823e3d90fd5b6000546001600160a01b0316330361104057565b60405163118cdaa760e01b8152336004820152602490fd5b6040516323b872dd60e01b60009081526001600160a01b03938416600452938316602452604494909452909160209060648180855af16001600051148116156110af575b83604052600060605215610ff657505050565b600181151661102257813b15153d15161661109c56fe9b779b17422d0df92223018b32b4d1fa46e071723d6817e2486d003becc55f00a2646970667358221220387fecc61ba2676899e928926d589d04d5f4beb2fc2f34fc8893ebf8eb19cb2e64736f6c63430008180033","opcodes":"PUSH1 0x80 CALLVALUE PUSH2 0x160 JUMPI PUSH1 0x1F PUSH2 0x1297 CODESIZE DUP2 SWAP1 SUB SWAP2 DUP3 ADD PUSH1 0x1F NOT AND DUP4 ADD SWAP2 PUSH1 0x1 PUSH1 0x1 PUSH1 0x40 SHL SUB DUP4 GT DUP5 DUP5 LT OR PUSH2 0x165 JUMPI DUP1 DUP5 SWAP3 PUSH1 0x80 SWAP5 PUSH1 0x40 MSTORE DUP4 CODECOPY DUP2 ADD SUB SLT PUSH2 0x160 JUMPI DUP1 MLOAD PUSH1 0x1 PUSH1 0x1 PUSH1 0xA0 SHL SUB SWAP1 DUP2 DUP2 AND SWAP1 DUP2 SWAP1 SUB PUSH2 0x160 JUMPI PUSH1 0x20 DUP4 ADD MLOAD PUSH1 0x60 PUSH1 0x40 DUP6 ADD MLOAD SWAP5 ADD MLOAD SWAP2 PUSH1 0x1 PUSH32 0x9B779B17422D0DF92223018B32B4D1FA46E071723D6817E2486D003BECC55F00 SSTORE CALLER ISZERO PUSH2 0x147 JUMPI PUSH1 0x0 DUP1 SLOAD CALLER PUSH1 0x1 PUSH1 0x1 PUSH1 0xA0 SHL SUB NOT DUP1 DUP4 AND DUP3 OR DUP5 SSTORE PUSH1 0x40 MLOAD SWAP4 SWAP8 SWAP1 SWAP4 SWAP3 AND PUSH32 0x8BE0079C531659141344CD1FD0A4F28419497F9722A3DAAFE3B4186F6B6457E0 DUP9 DUP1 LOG3 DUP3 ISZERO PUSH2 0x116 JUMPI POP PUSH1 0x1 SLOAD AND OR PUSH1 0x1 SSTORE PUSH1 0x2 SSTORE DUP3 PUSH1 0x3 SSTORE DUP3 ADD DUP1 SWAP3 GT PUSH2 0x102 JUMPI POP PUSH1 0x4 SSTORE PUSH1 0x40 MLOAD PUSH2 0x111B SWAP1 DUP2 PUSH2 0x17C DUP3 CODECOPY RETURN JUMPDEST PUSH4 0x4E487B71 PUSH1 0xE0 SHL DUP2 MSTORE PUSH1 0x11 PUSH1 0x4 MSTORE PUSH1 0x24 SWAP1 REVERT JUMPDEST PUSH3 0x461BCD PUSH1 0xE5 SHL DUP2 MSTORE PUSH1 0x20 PUSH1 0x4 DUP3 ADD MSTORE PUSH1 0xC PUSH1 0x24 DUP3 ADD MSTORE PUSH12 0x5A65726F2061646472657373 PUSH1 0xA0 SHL PUSH1 0x44 DUP3 ADD MSTORE PUSH1 0x64 SWAP1 REVERT JUMPDEST PUSH1 0x40 MLOAD PUSH4 0x1E4FBDF7 PUSH1 0xE0 SHL DUP2 MSTORE PUSH1 0x0 PUSH1 0x4 DUP3 ADD MSTORE PUSH1 0x24 SWAP1 REVERT JUMPDEST PUSH1 0x0 DUP1 REVERT JUMPDEST PUSH4 0x4E487B71 PUSH1 0xE0 SHL PUSH1 0x0 MSTORE PUSH1 0x41 PUSH1 0x4 MSTORE PUSH1 0x24 PUSH1 0x0 REVERT INVALID PUSH1 0x80 PUSH1 0x40 DUP2 DUP2 MSTORE PUSH1 0x4 SWAP2 DUP3 CALLDATASIZE LT ISZERO PUSH2 0x16 JUMPI PUSH1 0x0 DUP1 REVERT JUMPDEST PUSH1 0x0 SWAP3 DUP4 CALLDATALOAD PUSH1 0xE0 SHR SWAP2 DUP3 PUSH4 0x81E3EDA EQ PUSH2 0xC19 JUMPI POP DUP2 PUSH4 0x1526FE27 EQ PUSH2 0xBB3 JUMPI DUP2 PUSH4 0x17CAF6F1 EQ PUSH2 0xB94 JUMPI DUP2 PUSH4 0x3197CBB6 EQ PUSH2 0xB76 JUMPI DUP2 PUSH4 0x441A3E70 EQ PUSH2 0xA4D JUMPI DUP2 PUSH4 0x46CA6BEA EQ PUSH2 0x9A8 JUMPI DUP2 PUSH4 0x51EB05A6 EQ PUSH2 0x98B JUMPI DUP2 PUSH4 0x57376198 EQ PUSH2 0x8DA JUMPI DUP2 PUSH4 0x630B5BA1 EQ PUSH2 0x8BE JUMPI DUP2 PUSH4 0x66DA5815 EQ PUSH2 0x868 JUMPI DUP2 PUSH4 0x715018A6 EQ PUSH2 0x80E JUMPI DUP2 PUSH4 0x78E97925 EQ PUSH2 0x7EF JUMPI DUP2 PUSH4 0x7ABCEFFD EQ PUSH2 0x5DC JUMPI DUP2 PUSH4 0x8DA5CB5B EQ PUSH2 0x5B4 JUMPI DUP2 PUSH4 0x8F10369A EQ PUSH2 0x595 JUMPI DUP2 PUSH4 0x93F1A40B EQ PUSH2 0x54A JUMPI DUP2 PUSH4 0x98969E82 EQ PUSH2 0x3F5 JUMPI DUP2 PUSH4 0xCA1D209D EQ PUSH2 0x338 JUMPI DUP2 PUSH4 0xDDC63262 EQ PUSH2 0x2B6 JUMPI DUP2 PUSH4 0xE2BBB158 EQ PUSH2 0x1CD JUMPI DUP2 PUSH4 0xF2FDE38B EQ PUSH2 0x142 JUMPI POP PUSH4 0xF7C618C1 EQ PUSH2 0x117 JUMPI PUSH1 0x0 DUP1 REVERT JUMPDEST CALLVALUE PUSH2 0x13E JUMPI DUP2 PUSH1 0x3 NOT CALLDATASIZE ADD SLT PUSH2 0x13E JUMPI PUSH1 0x1 SLOAD SWAP1 MLOAD PUSH1 0x1 PUSH1 0x1 PUSH1 0xA0 SHL SUB SWAP1 SWAP2 AND DUP2 MSTORE PUSH1 0x20 SWAP1 RETURN JUMPDEST POP DUP1 REVERT JUMPDEST SWAP1 POP CALLVALUE PUSH2 0x1C9 JUMPI PUSH1 0x20 CALLDATASIZE PUSH1 0x3 NOT ADD SLT PUSH2 0x1C9 JUMPI PUSH2 0x15D PUSH2 0xCB0 JUMP JUMPDEST SWAP1 PUSH2 0x166 PUSH2 0x102C JUMP JUMPDEST PUSH1 0x1 PUSH1 0x1 PUSH1 0xA0 SHL SUB SWAP2 DUP3 AND SWAP3 DUP4 ISZERO PUSH2 0x1B3 JUMPI POP POP DUP3 SLOAD PUSH1 0x1 PUSH1 0x1 PUSH1 0xA0 SHL SUB NOT DUP2 AND DUP4 OR DUP5 SSTORE AND PUSH32 0x8BE0079C531659141344CD1FD0A4F28419497F9722A3DAAFE3B4186F6B6457E0 DUP4 DUP1 LOG3 DUP1 RETURN JUMPDEST MLOAD PUSH4 0x1E4FBDF7 PUSH1 0xE0 SHL DUP2 MSTORE SWAP1 DUP2 ADD DUP5 SWAP1 MSTORE PUSH1 0x24 SWAP1 REVERT JUMPDEST DUP3 DUP1 REVERT JUMPDEST SWAP2 SWAP1 POP CALLVALUE PUSH2 0x1C9 JUMPI PUSH2 0x1DE CALLDATASIZE PUSH2 0xC86 JUMP JUMPDEST SWAP2 SWAP1 SWAP3 PUSH2 0x1E9 PUSH2 0xE37 JUMP JUMPDEST PUSH1 0x1 PUSH5 0xE8D4A51000 PUSH2 0x23B PUSH2 0x1FD DUP8 PUSH2 0xC35 JUMP JUMPDEST POP DUP8 DUP10 MSTORE PUSH1 0x7 PUSH1 0x20 MSTORE DUP6 DUP10 KECCAK256 CALLER DUP11 MSTORE PUSH1 0x20 MSTORE DUP6 DUP10 KECCAK256 SWAP5 PUSH2 0x21C DUP10 PUSH2 0xD3F JUMP JUMPDEST PUSH2 0x227 DUP7 CALLER DUP12 PUSH2 0xE67 JUMP JUMPDEST DUP8 PUSH2 0x27E JUMPI JUMPDEST POP PUSH1 0x3 DUP6 SLOAD SWAP2 ADD SLOAD SWAP1 PUSH2 0xCFF JUMP JUMPDEST DIV SWAP2 ADD SSTORE MLOAD SWAP1 DUP2 MSTORE PUSH32 0x90890809C654F11D6E72A28FA60149770A0D11EC6C92319D6CEB2BB0A4EA1A15 PUSH1 0x20 CALLER SWAP3 LOG3 PUSH1 0x1 PUSH1 0x0 DUP1 MLOAD PUSH1 0x20 PUSH2 0x10C6 DUP4 CODECOPY DUP2 MLOAD SWAP2 MSTORE SSTORE DUP1 RETURN JUMPDEST PUSH2 0x294 DUP9 DUP7 DUP1 PUSH1 0xA0 SHL SUB DUP5 SLOAD AND ADDRESS SWAP1 CALLER SWAP1 PUSH2 0x1058 JUMP JUMPDEST PUSH2 0x29F DUP9 DUP8 SLOAD PUSH2 0xD32 JUMP JUMPDEST DUP7 SSTORE DUP2 ADD PUSH2 0x2AE DUP9 DUP3 SLOAD PUSH2 0xD32 JUMP JUMPDEST SWAP1 SSTORE CODESIZE PUSH2 0x22D JUMP JUMPDEST SWAP1 POP CALLVALUE PUSH2 0x1C9 JUMPI PUSH1 0x20 CALLDATASIZE PUSH1 0x3 NOT ADD SLT PUSH2 0x1C9 JUMPI PUSH5 0xE8D4A51000 PUSH2 0x31F PUSH1 0x1 SWAP3 CALLDATALOAD SWAP4 PUSH2 0x2DF PUSH2 0xE37 JUMP JUMPDEST PUSH2 0x312 PUSH2 0x2EB DUP7 PUSH2 0xC35 JUMP JUMPDEST POP SWAP2 DUP7 DUP9 MSTORE PUSH1 0x7 PUSH1 0x20 MSTORE DUP1 DUP9 KECCAK256 CALLER DUP10 MSTORE PUSH1 0x20 MSTORE DUP8 KECCAK256 DUP7 PUSH2 0x30B DUP3 SWAP9 PUSH2 0xD3F JUMP JUMPDEST CALLER SWAP1 PUSH2 0xE67 JUMP JUMPDEST PUSH1 0x3 DUP6 SLOAD SWAP2 ADD SLOAD SWAP1 PUSH2 0xCFF JUMP JUMPDEST DIV SWAP2 ADD SSTORE PUSH1 0x1 PUSH1 0x0 DUP1 MLOAD PUSH1 0x20 PUSH2 0x10C6 DUP4 CODECOPY DUP2 MLOAD SWAP2 MSTORE SSTORE DUP1 RETURN JUMPDEST DUP4 DUP4 CALLVALUE PUSH2 0x13E JUMPI PUSH1 0x20 CALLDATASIZE PUSH1 0x3 NOT ADD SLT PUSH2 0x13E JUMPI DUP3 CALLDATALOAD PUSH2 0x355 PUSH2 0x102C JUMP JUMPDEST PUSH1 0x2 SLOAD ISZERO PUSH2 0x3C3 JUMPI PUSH1 0x1 SLOAD SWAP3 SWAP4 PUSH32 0xA1DD612B9278FE0BB5D89ED1F642DC3678D0E558630C5A4A8DF212BA2197CDB4 SWAP4 PUSH2 0x39C SWAP1 DUP4 SWAP1 ADDRESS SWAP1 CALLER SWAP1 PUSH1 0x1 PUSH1 0x1 PUSH1 0xA0 SHL SUB AND PUSH2 0x1058 JUMP JUMPDEST PUSH2 0x3B2 PUSH2 0x3AB PUSH1 0x2 SLOAD DUP5 PUSH2 0xD12 JUMP JUMPDEST DUP3 SLOAD PUSH2 0xD32 JUMP JUMPDEST DUP1 SWAP2 SSTORE DUP3 MLOAD SWAP2 DUP3 MSTORE PUSH1 0x20 DUP3 ADD MSTORE LOG1 DUP1 RETURN JUMPDEST DUP2 MLOAD PUSH3 0x461BCD PUSH1 0xE5 SHL DUP2 MSTORE PUSH1 0x20 DUP2 DUP7 ADD MSTORE PUSH1 0xC PUSH1 0x24 DUP3 ADD MSTORE PUSH12 0x14985D19481B9BDD081CD95D PUSH1 0xA2 SHL PUSH1 0x44 DUP3 ADD MSTORE PUSH1 0x64 SWAP1 REVERT JUMPDEST DUP3 DUP5 CALLVALUE PUSH2 0x547 JUMPI DUP2 PUSH1 0x3 NOT CALLDATASIZE ADD SLT PUSH2 0x547 JUMPI DUP3 CALLDATALOAD PUSH2 0x411 PUSH2 0xCC6 JUMP JUMPDEST PUSH2 0x41A DUP3 PUSH2 0xC35 JUMP JUMPDEST POP SWAP2 DUP4 MSTORE PUSH1 0x7 PUSH1 0x20 MSTORE DUP4 DUP4 KECCAK256 SWAP1 PUSH1 0x1 DUP1 PUSH1 0xA0 SHL SUB AND DUP4 MSTORE PUSH1 0x20 MSTORE DUP3 DUP3 KECCAK256 SWAP2 PUSH1 0x3 DUP3 ADD SLOAD SWAP2 PUSH1 0x2 DUP2 ADD SLOAD DUP1 TIMESTAMP GT DUP1 PUSH2 0x53B JUMPI JUMPDEST DUP1 PUSH2 0x530 JUMPI JUMPDEST PUSH2 0x482 JUMPI JUMPDEST PUSH1 0x20 DUP7 PUSH2 0x47B DUP8 PUSH1 0x1 PUSH5 0xE8D4A51000 PUSH2 0x471 DUP11 DUP5 SLOAD PUSH2 0xCFF JUMP JUMPDEST DIV SWAP2 ADD SLOAD SWAP1 PUSH2 0xCDC JUMP JUMPDEST SWAP1 MLOAD SWAP1 DUP2 MSTORE RETURN JUMPDEST DUP7 SLOAD DUP1 TIMESTAMP LT PUSH1 0x0 EQ PUSH2 0x52B JUMPI POP TIMESTAMP JUMPDEST DUP2 DUP2 GT PUSH2 0x49F JUMPI JUMPDEST POP PUSH2 0x457 JUMP JUMPDEST PUSH2 0x4BB PUSH2 0x4B2 PUSH2 0x4CF SWAP4 PUSH2 0x4C6 SWAP4 PUSH2 0xCDC JUMP JUMPDEST PUSH1 0x2 SLOAD SWAP1 PUSH2 0xCFF JUMP JUMPDEST PUSH1 0x1 DUP5 ADD SLOAD SWAP1 PUSH2 0xCFF JUMP JUMPDEST PUSH1 0x5 SLOAD SWAP1 PUSH2 0xD12 JUMP JUMPDEST SWAP2 PUSH5 0xE8D4A51000 SWAP3 DUP4 DUP2 MUL SWAP4 DUP2 DUP6 DIV EQ SWAP1 ISZERO OR ISZERO PUSH2 0x518 JUMPI POP PUSH2 0x471 PUSH2 0x511 PUSH2 0x47B SWAP6 SWAP5 PUSH2 0x50B PUSH1 0x1 SWAP6 PUSH1 0x20 SWAP11 PUSH5 0xE8D4A51000 SWAP7 ADD SLOAD SWAP1 PUSH2 0xD12 JUMP JUMPDEST SWAP1 PUSH2 0xD32 JUMP JUMPDEST SWAP4 SWAP5 PUSH2 0x499 JUMP JUMPDEST PUSH4 0x4E487B71 PUSH1 0xE0 SHL DUP2 MSTORE PUSH1 0x11 DUP8 MSTORE PUSH1 0x24 SWAP1 REVERT JUMPDEST PUSH2 0x491 JUMP JUMPDEST POP PUSH1 0x5 SLOAD ISZERO ISZERO PUSH2 0x452 JUMP JUMPDEST POP DUP7 DUP3 ADD SLOAD ISZERO ISZERO PUSH2 0x44C JUMP JUMPDEST DUP1 REVERT JUMPDEST SWAP1 POP CALLVALUE PUSH2 0x1C9 JUMPI DUP2 PUSH1 0x3 NOT CALLDATASIZE ADD SLT PUSH2 0x1C9 JUMPI SWAP2 DUP2 SWAP3 PUSH2 0x567 PUSH2 0xCC6 JUMP JUMPDEST SWAP1 CALLDATALOAD DUP3 MSTORE PUSH1 0x7 PUSH1 0x20 MSTORE DUP3 DUP3 KECCAK256 SWAP1 PUSH1 0x1 DUP1 PUSH1 0xA0 SHL SUB AND DUP3 MSTORE PUSH1 0x20 MSTORE KECCAK256 PUSH1 0x1 DUP2 SLOAD SWAP2 ADD SLOAD DUP3 MLOAD SWAP2 DUP3 MSTORE PUSH1 0x20 DUP3 ADD MSTORE RETURN JUMPDEST POP POP CALLVALUE PUSH2 0x13E JUMPI DUP2 PUSH1 0x3 NOT CALLDATASIZE ADD SLT PUSH2 0x13E JUMPI PUSH1 0x20 SWAP1 PUSH1 0x2 SLOAD SWAP1 MLOAD SWAP1 DUP2 MSTORE RETURN JUMPDEST POP POP CALLVALUE PUSH2 0x13E JUMPI DUP2 PUSH1 0x3 NOT CALLDATASIZE ADD SLT PUSH2 0x13E JUMPI SWAP1 SLOAD SWAP1 MLOAD PUSH1 0x1 PUSH1 0x1 PUSH1 0xA0 SHL SUB SWAP1 SWAP2 AND DUP2 MSTORE PUSH1 0x20 SWAP1 RETURN JUMPDEST SWAP1 POP CALLVALUE PUSH2 0x1C9 JUMPI PUSH1 0x60 CALLDATASIZE PUSH1 0x3 NOT ADD SLT PUSH2 0x1C9 JUMPI DUP1 CALLDATALOAD PUSH2 0x5F9 PUSH2 0xCC6 JUMP JUMPDEST SWAP3 PUSH2 0x602 PUSH2 0xCA1 JUMP JUMPDEST SWAP4 PUSH2 0x60B PUSH2 0x102C JUMP JUMPDEST PUSH1 0x1 PUSH1 0x1 PUSH1 0xA0 SHL SUB SWAP1 DUP2 AND SWAP5 DUP6 ISZERO PUSH2 0x7BD JUMPI DUP2 PUSH1 0x1 SLOAD AND DUP7 EQ PUSH2 0x77A JUMPI PUSH2 0x76D JUMPI JUMPDEST PUSH1 0x3 SLOAD DUP1 TIMESTAMP GT PUSH1 0x0 EQ PUSH2 0x767 JUMPI POP TIMESTAMP SWAP1 JUMPDEST PUSH2 0x64A DUP5 PUSH1 0x5 SLOAD PUSH2 0xD32 JUMP JUMPDEST PUSH1 0x5 SSTORE DUP3 MLOAD SWAP2 PUSH1 0xA0 DUP4 ADD DUP4 DUP2 LT PUSH8 0xFFFFFFFFFFFFFFFF DUP3 GT OR PUSH2 0x754 JUMPI DUP5 MSTORE DUP7 DUP4 MSTORE PUSH1 0x20 DUP4 ADD SWAP1 DUP6 DUP3 MSTORE DUP5 DUP5 ADD SWAP1 DUP2 MSTORE PUSH1 0x60 DUP5 ADD SWAP2 DUP10 DUP4 MSTORE PUSH1 0x80 DUP6 ADD SWAP4 DUP11 DUP6 MSTORE PUSH1 0x6 SLOAD PUSH9 0x10000000000000000 DUP2 LT ISZERO PUSH2 0x741 JUMPI DUP1 PUSH1 0x1 PUSH2 0x6AE SWAP3 ADD PUSH1 0x6 SSTORE PUSH2 0xC35 JUMP JUMPDEST SWAP7 SWAP1 SWAP7 PUSH2 0x72F JUMPI MLOAD DUP7 SLOAD PUSH1 0x1 PUSH1 0x1 PUSH1 0xA0 SHL SUB NOT AND SWAP2 AND OR DUP6 SSTORE MLOAD PUSH1 0x1 DUP6 ADD SSTORE MLOAD PUSH1 0x2 DUP5 ADD SSTORE MLOAD PUSH1 0x3 DUP4 ADD SSTORE MLOAD SWAP1 DUP5 ADD SSTORE PUSH1 0x6 SLOAD PUSH1 0x0 NOT DUP2 ADD SWAP4 SWAP1 DUP5 GT PUSH2 0x71C JUMPI POP PUSH32 0x6C5D0EF1D0199B6DE41ECBCE95F59643BE4D723CA363FAF92D756E61E82FB13E SWAP2 PUSH1 0x20 SWAP2 MLOAD SWAP1 DUP2 MSTORE LOG3 DUP1 RETURN JUMPDEST PUSH4 0x4E487B71 PUSH1 0xE0 SHL DUP7 MSTORE PUSH1 0x11 SWAP1 MSTORE PUSH1 0x24 DUP6 REVERT JUMPDEST PUSH4 0x4E487B71 PUSH1 0xE0 SHL DUP13 MSTORE DUP12 DUP11 MSTORE PUSH1 0x24 DUP13 REVERT JUMPDEST PUSH4 0x4E487B71 PUSH1 0xE0 SHL DUP13 MSTORE PUSH1 0x41 DUP11 MSTORE PUSH1 0x24 DUP13 REVERT JUMPDEST PUSH4 0x4E487B71 PUSH1 0xE0 SHL DUP10 MSTORE PUSH1 0x41 DUP8 MSTORE PUSH1 0x24 DUP10 REVERT JUMPDEST SWAP1 PUSH2 0x63E JUMP JUMPDEST PUSH2 0x775 PUSH2 0xE14 JUMP JUMPDEST PUSH2 0x62D JUMP JUMPDEST DUP3 MLOAD PUSH3 0x461BCD PUSH1 0xE5 SHL DUP2 MSTORE PUSH1 0x20 DUP2 DUP8 ADD MSTORE PUSH1 0x19 PUSH1 0x24 DUP3 ADD MSTORE PUSH32 0x43616E6E6F74207374616B652072657761726420746F6B656E00000000000000 PUSH1 0x44 DUP3 ADD MSTORE PUSH1 0x64 SWAP1 REVERT JUMPDEST DUP3 MLOAD PUSH3 0x461BCD PUSH1 0xE5 SHL DUP2 MSTORE PUSH1 0x20 DUP2 DUP8 ADD MSTORE PUSH1 0xC PUSH1 0x24 DUP3 ADD MSTORE PUSH12 0x5A65726F2061646472657373 PUSH1 0xA0 SHL PUSH1 0x44 DUP3 ADD MSTORE PUSH1 0x64 SWAP1 REVERT JUMPDEST POP POP CALLVALUE PUSH2 0x13E JUMPI DUP2 PUSH1 0x3 NOT CALLDATASIZE ADD SLT PUSH2 0x13E JUMPI PUSH1 0x20 SWAP1 PUSH1 0x3 SLOAD SWAP1 MLOAD SWAP1 DUP2 MSTORE RETURN JUMPDEST DUP4 CALLVALUE PUSH2 0x547 JUMPI DUP1 PUSH1 0x3 NOT CALLDATASIZE ADD SLT PUSH2 0x547 JUMPI PUSH2 0x827 PUSH2 0x102C JUMP JUMPDEST DUP1 SLOAD PUSH1 0x1 PUSH1 0x1 PUSH1 0xA0 SHL SUB NOT DUP2 AND DUP3 SSTORE DUP2 SWAP1 PUSH1 0x1 PUSH1 0x1 PUSH1 0xA0 SHL SUB AND PUSH32 0x8BE0079C531659141344CD1FD0A4F28419497F9722A3DAAFE3B4186F6B6457E0 DUP3 DUP1 LOG3 DUP1 RETURN JUMPDEST SWAP1 POP CALLVALUE PUSH2 0x1C9 JUMPI PUSH1 0x20 CALLDATASIZE PUSH1 0x3 NOT ADD SLT PUSH2 0x1C9 JUMPI PUSH32 0x41D466EBD06FB97E7786086AC8B69B7EB7DA798592036251291D34E9791CDE01 SWAP2 PUSH1 0x20 SWAP2 CALLDATALOAD SWAP1 PUSH2 0x8AA PUSH2 0x102C JUMP JUMPDEST PUSH2 0x8B2 PUSH2 0xE14 JUMP JUMPDEST DUP2 PUSH1 0x2 SSTORE MLOAD SWAP1 DUP2 MSTORE LOG1 DUP1 RETURN JUMPDEST DUP4 CALLVALUE PUSH2 0x547 JUMPI DUP1 PUSH1 0x3 NOT CALLDATASIZE ADD SLT PUSH2 0x547 JUMPI PUSH2 0x8D7 PUSH2 0xE14 JUMP JUMPDEST DUP1 RETURN JUMPDEST DUP4 SWAP2 POP CALLVALUE PUSH2 0x13E JUMPI DUP3 PUSH1 0x3 NOT CALLDATASIZE ADD SLT PUSH2 0x13E JUMPI SWAP2 PUSH2 0x8F6 PUSH2 0xCB0 JUMP JUMPDEST SWAP1 PUSH1 0x24 SWAP4 PUSH2 0x902 PUSH2 0x102C JUMP JUMPDEST PUSH1 0x6 SLOAD SWAP5 PUSH1 0x1 PUSH1 0x1 PUSH1 0xA0 SHL SUB SWAP4 DUP5 AND SWAP3 DUP6 JUMPDEST DUP8 DUP2 LT PUSH2 0x92E JUMPI DUP7 PUSH2 0x8D7 DUP8 DUP8 PUSH1 0x24 CALLDATALOAD SWAP2 DUP5 SLOAD AND SWAP1 PUSH2 0xFAB JUMP JUMPDEST DUP5 DUP7 PUSH2 0x939 DUP4 PUSH2 0xC35 JUMP JUMPDEST POP SLOAD AND EQ PUSH2 0x949 JUMPI PUSH1 0x1 ADD PUSH2 0x914 JUMP JUMPDEST DUP2 MLOAD PUSH3 0x461BCD PUSH1 0xE5 SHL DUP2 MSTORE PUSH1 0x20 DUP2 DUP7 ADD MSTORE PUSH1 0x17 DUP2 DUP6 ADD MSTORE PUSH32 0x43616E6E6F742072657363756520616374697665204C50000000000000000000 PUSH1 0x44 DUP3 ADD MSTORE PUSH1 0x64 SWAP1 REVERT JUMPDEST DUP4 SWAP1 CALLVALUE PUSH2 0x13E JUMPI PUSH1 0x20 CALLDATASIZE PUSH1 0x3 NOT ADD SLT PUSH2 0x13E JUMPI PUSH2 0x8D7 SWAP1 CALLDATALOAD PUSH2 0xD3F JUMP JUMPDEST SWAP1 POP CALLVALUE PUSH2 0x1C9 JUMPI PUSH1 0x60 CALLDATASIZE PUSH1 0x3 NOT ADD SLT PUSH2 0x1C9 JUMPI PUSH1 0x20 PUSH32 0x7FA9647EC1CC14E3822B46D05A2B9D4E019BDE8875C0088C46B6503D71BF1722 SWAP2 CALLDATALOAD SWAP3 PUSH1 0x24 CALLDATALOAD SWAP1 PUSH2 0x9ED PUSH2 0xCA1 JUMP JUMPDEST PUSH2 0x9F5 PUSH2 0x102C JUMP JUMPDEST ISZERO PUSH2 0xA3F JUMPI PUSH2 0xA02 PUSH2 0xE14 JUMP JUMPDEST PUSH2 0xA25 DUP3 PUSH2 0xA20 PUSH1 0x5 SLOAD PUSH1 0x1 PUSH2 0xA17 DUP11 PUSH2 0xC35 JUMP JUMPDEST POP ADD SLOAD SWAP1 PUSH2 0xCDC JUMP JUMPDEST PUSH2 0xD32 JUMP JUMPDEST PUSH1 0x5 SSTORE DUP2 PUSH1 0x1 PUSH2 0xA34 DUP8 PUSH2 0xC35 JUMP JUMPDEST POP ADD SSTORE MLOAD SWAP1 DUP2 MSTORE LOG2 DUP1 RETURN JUMPDEST PUSH2 0xA48 DUP6 PUSH2 0xD3F JUMP JUMPDEST PUSH2 0xA02 JUMP JUMPDEST SWAP2 SWAP1 POP CALLVALUE PUSH2 0x1C9 JUMPI PUSH2 0xA5E CALLDATASIZE PUSH2 0xC86 JUMP JUMPDEST SWAP2 SWAP1 SWAP3 PUSH2 0xA69 PUSH2 0xE37 JUMP JUMPDEST PUSH2 0xA72 DUP5 PUSH2 0xC35 JUMP JUMPDEST POP DUP5 DUP7 MSTORE PUSH1 0x7 PUSH1 0x20 MSTORE DUP3 DUP7 KECCAK256 CALLER DUP8 MSTORE PUSH1 0x20 MSTORE DUP3 DUP7 KECCAK256 SWAP2 DUP5 DUP4 SLOAD LT PUSH2 0xB3C JUMPI PUSH2 0xAC4 PUSH1 0x1 SWAP3 PUSH5 0xE8D4A51000 SWAP3 PUSH2 0xAA6 DUP10 PUSH2 0xD3F JUMP JUMPDEST PUSH2 0xAB1 DUP7 CALLER DUP12 PUSH2 0xE67 JUMP JUMPDEST DUP8 PUSH2 0xB07 JUMPI POP PUSH1 0x3 DUP6 SLOAD SWAP2 ADD SLOAD SWAP1 PUSH2 0xCFF JUMP JUMPDEST DIV SWAP2 ADD SSTORE MLOAD SWAP1 DUP2 MSTORE PUSH32 0xF279E6A1F5E320CCA91135676D9CB6E44CA8A08C0B88342BCDB1144F6511B568 PUSH1 0x20 CALLER SWAP3 LOG3 PUSH1 0x1 PUSH1 0x0 DUP1 MLOAD PUSH1 0x20 PUSH2 0x10C6 DUP4 CODECOPY DUP2 MLOAD SWAP2 MSTORE SSTORE DUP1 RETURN JUMPDEST PUSH2 0xB12 DUP9 DUP8 SLOAD PUSH2 0xCDC JUMP JUMPDEST DUP7 SSTORE DUP2 ADD PUSH2 0xB21 DUP9 DUP3 SLOAD PUSH2 0xCDC JUMP JUMPDEST SWAP1 SSTORE PUSH2 0xB36 DUP8 CALLER DUP7 DUP1 PUSH1 0xA0 SHL SUB DUP5 SLOAD AND PUSH2 0xFAB JUMP JUMPDEST CODESIZE PUSH2 0x22D JUMP JUMPDEST PUSH1 0x64 SWAP1 PUSH1 0x20 DUP6 MLOAD SWAP2 PUSH3 0x461BCD PUSH1 0xE5 SHL DUP4 MSTORE DUP3 ADD MSTORE PUSH1 0x14 PUSH1 0x24 DUP3 ADD MSTORE PUSH20 0x496E73756666696369656E742062616C616E6365 PUSH1 0x60 SHL PUSH1 0x44 DUP3 ADD MSTORE REVERT JUMPDEST SWAP1 POP CALLVALUE PUSH2 0x1C9 JUMPI DUP3 PUSH1 0x3 NOT CALLDATASIZE ADD SLT PUSH2 0x1C9 JUMPI PUSH1 0x20 SWAP3 POP SLOAD SWAP1 MLOAD SWAP1 DUP2 MSTORE RETURN JUMPDEST POP POP CALLVALUE PUSH2 0x13E JUMPI DUP2 PUSH1 0x3 NOT CALLDATASIZE ADD SLT PUSH2 0x13E JUMPI PUSH1 0x20 SWAP1 PUSH1 0x5 SLOAD SWAP1 MLOAD SWAP1 DUP2 MSTORE RETURN JUMPDEST SWAP2 SWAP1 POP CALLVALUE PUSH2 0x1C9 JUMPI PUSH1 0x20 CALLDATASIZE PUSH1 0x3 NOT ADD SLT PUSH2 0x1C9 JUMPI DUP2 CALLDATALOAD SWAP3 PUSH1 0x6 SLOAD DUP5 LT ISZERO PUSH2 0x547 JUMPI POP PUSH2 0xBE0 PUSH1 0xA0 SWAP4 PUSH2 0xC35 JUMP JUMPDEST POP PUSH1 0x1 DUP1 DUP6 SHL SUB DUP2 SLOAD AND SWAP3 PUSH1 0x1 DUP3 ADD SLOAD SWAP3 PUSH1 0x2 DUP4 ADD SLOAD SWAP2 PUSH1 0x3 DUP5 ADD SLOAD SWAP4 ADD SLOAD SWAP4 DUP2 MLOAD SWAP6 DUP7 MSTORE PUSH1 0x20 DUP7 ADD MSTORE DUP5 ADD MSTORE PUSH1 0x60 DUP4 ADD MSTORE PUSH1 0x80 DUP3 ADD MSTORE RETURN JUMPDEST DUP5 SWAP1 CALLVALUE PUSH2 0x13E JUMPI DUP2 PUSH1 0x3 NOT CALLDATASIZE ADD SLT PUSH2 0x13E JUMPI PUSH1 0x20 SWAP1 PUSH1 0x6 SLOAD DUP2 MSTORE RETURN JUMPDEST PUSH1 0x6 SLOAD DUP2 LT ISZERO PUSH2 0xC70 JUMPI PUSH1 0x5 SWAP1 PUSH1 0x6 PUSH1 0x0 MSTORE MUL PUSH32 0xF652222313E28459528D920B65115C16C04F3EFC82AAEDC97BE59F3F377C0D3F ADD SWAP1 PUSH1 0x0 SWAP1 JUMP JUMPDEST PUSH4 0x4E487B71 PUSH1 0xE0 SHL PUSH1 0x0 MSTORE PUSH1 0x32 PUSH1 0x4 MSTORE PUSH1 0x24 PUSH1 0x0 REVERT JUMPDEST PUSH1 0x40 SWAP1 PUSH1 0x3 NOT ADD SLT PUSH2 0xC9C JUMPI PUSH1 0x4 CALLDATALOAD SWAP1 PUSH1 0x24 CALLDATALOAD SWAP1 JUMP JUMPDEST PUSH1 0x0 DUP1 REVERT JUMPDEST PUSH1 0x44 CALLDATALOAD SWAP1 DUP2 ISZERO ISZERO DUP3 SUB PUSH2 0xC9C JUMPI JUMP JUMPDEST PUSH1 0x4 CALLDATALOAD SWAP1 PUSH1 0x1 PUSH1 0x1 PUSH1 0xA0 SHL SUB DUP3 AND DUP3 SUB PUSH2 0xC9C JUMPI JUMP JUMPDEST PUSH1 0x24 CALLDATALOAD SWAP1 PUSH1 0x1 PUSH1 0x1 PUSH1 0xA0 SHL SUB DUP3 AND DUP3 SUB PUSH2 0xC9C JUMPI JUMP JUMPDEST SWAP2 SWAP1 DUP3 SUB SWAP2 DUP3 GT PUSH2 0xCE9 JUMPI JUMP JUMPDEST PUSH4 0x4E487B71 PUSH1 0xE0 SHL PUSH1 0x0 MSTORE PUSH1 0x11 PUSH1 0x4 MSTORE PUSH1 0x24 PUSH1 0x0 REVERT JUMPDEST DUP2 DUP2 MUL SWAP3 SWAP2 DUP2 ISZERO SWAP2 DUP5 DIV EQ OR ISZERO PUSH2 0xCE9 JUMPI JUMP JUMPDEST DUP2 ISZERO PUSH2 0xD1C JUMPI DIV SWAP1 JUMP JUMPDEST PUSH4 0x4E487B71 PUSH1 0xE0 SHL PUSH1 0x0 MSTORE PUSH1 0x12 PUSH1 0x4 MSTORE PUSH1 0x24 PUSH1 0x0 REVERT JUMPDEST SWAP2 SWAP1 DUP3 ADD DUP1 SWAP3 GT PUSH2 0xCE9 JUMPI JUMP JUMPDEST PUSH2 0xD48 SWAP1 PUSH2 0xC35 JUMP JUMPDEST POP PUSH1 0x2 DUP2 ADD SWAP1 DUP2 SLOAD TIMESTAMP GT ISZERO PUSH2 0xE10 JUMPI PUSH1 0x4 DUP2 ADD SLOAD DUP1 ISZERO DUP1 ISZERO PUSH2 0xE06 JUMPI JUMPDEST DUP1 ISZERO PUSH2 0xDFA JUMPI JUMPDEST PUSH2 0xDF3 JUMPI PUSH1 0x4 SLOAD DUP1 TIMESTAMP LT PUSH1 0x0 EQ PUSH2 0xDEE JUMPI POP TIMESTAMP JUMPDEST DUP4 SLOAD SWAP1 DUP2 DUP2 GT PUSH2 0xD94 JUMPI JUMPDEST POP POP POP POP TIMESTAMP SWAP1 SSTORE JUMP JUMPDEST PUSH2 0xDA7 PUSH2 0x4B2 PUSH2 0xDB2 SWAP4 PUSH2 0x4C6 SWAP4 PUSH2 0xCDC JUMP JUMPDEST PUSH1 0x1 DUP6 ADD SLOAD SWAP1 PUSH2 0xCFF JUMP JUMPDEST SWAP1 PUSH5 0xE8D4A51000 SWAP2 DUP3 DUP2 MUL SWAP3 DUP2 DUP5 DIV EQ SWAP1 ISZERO OR ISZERO PUSH2 0xCE9 JUMPI PUSH2 0xDD9 PUSH1 0x3 SWAP2 PUSH2 0xDE3 SWAP4 PUSH2 0xD12 JUMP JUMPDEST SWAP3 ADD SWAP2 DUP3 SLOAD PUSH2 0xD32 JUMP JUMPDEST SWAP1 SSTORE CODESIZE DUP1 DUP1 DUP1 PUSH2 0xD8B JUMP JUMPDEST PUSH2 0xD80 JUMP JUMPDEST POP POP TIMESTAMP SWAP1 SSTORE JUMP JUMPDEST POP PUSH1 0x1 DUP3 ADD SLOAD ISZERO PUSH2 0xD6C JUMP JUMPDEST POP PUSH1 0x5 SLOAD ISZERO PUSH2 0xD65 JUMP JUMPDEST POP POP JUMP JUMPDEST PUSH1 0x6 SLOAD PUSH1 0x0 JUMPDEST DUP2 DUP2 LT PUSH2 0xE25 JUMPI POP POP JUMP JUMPDEST DUP1 PUSH2 0xE31 PUSH1 0x1 SWAP3 PUSH2 0xD3F JUMP JUMPDEST ADD PUSH2 0xE1A JUMP JUMPDEST PUSH1 0x0 DUP1 MLOAD PUSH1 0x20 PUSH2 0x10C6 DUP4 CODECOPY DUP2 MLOAD SWAP2 MSTORE PUSH1 0x2 DUP2 SLOAD EQ PUSH2 0xE55 JUMPI PUSH1 0x2 SWAP1 SSTORE JUMP JUMPDEST PUSH1 0x40 MLOAD PUSH4 0x3EE5AEB5 PUSH1 0xE0 SHL DUP2 MSTORE PUSH1 0x4 SWAP1 REVERT JUMPDEST SWAP2 PUSH2 0xE80 SWAP1 PUSH1 0x1 PUSH5 0xE8D4A51000 PUSH2 0x471 PUSH2 0x22D DUP8 PUSH2 0xC35 JUMP JUMPDEST DUP1 PUSH2 0xE8A JUMPI POP POP POP JUMP JUMPDEST PUSH1 0x1 SLOAD PUSH1 0x40 MLOAD PUSH4 0x70A08231 PUSH1 0xE0 SHL DUP2 MSTORE ADDRESS PUSH1 0x4 DUP3 ADD MSTORE PUSH1 0x1 PUSH1 0x1 PUSH1 0xA0 SHL SUB SWAP3 SWAP1 SWAP2 DUP4 AND SWAP1 PUSH1 0x20 DUP4 PUSH1 0x24 DUP2 DUP6 GAS STATICCALL SWAP1 DUP2 ISZERO PUSH2 0xF9F JUMPI DUP6 SWAP4 PUSH1 0x0 SWAP3 PUSH2 0xF1C JUMPI JUMPDEST POP PUSH32 0x71BAB65CED2E5750775A0613BE067DF48EF06CF92A496EBF7663AE0660924954 SWAP5 SWAP3 PUSH1 0x20 SWAP5 SWAP3 PUSH2 0xF07 SWAP3 DUP2 DUP2 GT PUSH1 0x0 EQ PUSH2 0xF12 JUMPI POP SWAP7 DUP8 SWAP2 PUSH2 0xFAB JUMP JUMPDEST PUSH1 0x40 MLOAD SWAP5 DUP6 MSTORE AND SWAP3 LOG3 JUMP JUMPDEST SWAP1 POP SWAP7 DUP8 SWAP2 PUSH2 0xFAB JUMP JUMPDEST SWAP2 SWAP1 SWAP3 SWAP4 POP PUSH1 0x20 RETURNDATASIZE PUSH1 0x20 GT PUSH2 0xF98 JUMPI JUMPDEST PUSH1 0x1F DUP2 ADD PUSH1 0x1F NOT AND DUP4 ADD PUSH8 0xFFFFFFFFFFFFFFFF DUP2 GT DUP5 DUP3 LT OR PUSH2 0xF84 JUMPI PUSH1 0x20 SWAP2 DUP5 SWAP2 PUSH1 0x40 MSTORE DUP2 ADD SUB SLT PUSH2 0x547 JUMPI POP MLOAD DUP5 SWAP3 SWAP2 PUSH32 0x71BAB65CED2E5750775A0613BE067DF48EF06CF92A496EBF7663AE0660924954 PUSH2 0xEC8 JUMP JUMPDEST PUSH4 0x4E487B71 PUSH1 0xE0 SHL DUP4 MSTORE PUSH1 0x41 PUSH1 0x4 MSTORE PUSH1 0x24 DUP4 REVERT JUMPDEST POP RETURNDATASIZE PUSH2 0xF2C JUMP JUMPDEST PUSH1 0x40 MLOAD RETURNDATASIZE PUSH1 0x0 DUP3 RETURNDATACOPY RETURNDATASIZE SWAP1 REVERT JUMPDEST PUSH1 0x40 MLOAD PUSH4 0xA9059CBB PUSH1 0xE0 SHL PUSH1 0x0 SWAP1 DUP2 MSTORE PUSH1 0x1 PUSH1 0x1 PUSH1 0xA0 SHL SUB SWAP4 DUP5 AND PUSH1 0x4 MSTORE PUSH1 0x24 SWAP5 SWAP1 SWAP5 MSTORE SWAP3 PUSH1 0x20 SWAP1 PUSH1 0x44 DUP2 DUP1 DUP6 GAS CALL PUSH1 0x1 PUSH1 0x0 MLOAD EQ DUP2 AND ISZERO PUSH2 0x100C JUMPI JUMPDEST DUP4 PUSH1 0x40 MSTORE ISZERO PUSH2 0xFF6 JUMPI POP POP POP JUMP JUMPDEST PUSH4 0x5274AFE7 PUSH1 0xE0 SHL DUP4 MSTORE AND PUSH1 0x4 DUP3 ADD MSTORE PUSH1 0x24 SWAP2 POP REVERT JUMPDEST PUSH1 0x1 DUP2 ISZERO AND PUSH2 0x1022 JUMPI DUP2 EXTCODESIZE ISZERO ISZERO RETURNDATASIZE ISZERO AND AND PUSH2 0xFE8 JUMP JUMPDEST DUP4 RETURNDATASIZE PUSH1 0x0 DUP3 RETURNDATACOPY RETURNDATASIZE SWAP1 REVERT JUMPDEST PUSH1 0x0 SLOAD PUSH1 0x1 PUSH1 0x1 PUSH1 0xA0 SHL SUB AND CALLER SUB PUSH2 0x1040 JUMPI JUMP JUMPDEST PUSH1 0x40 MLOAD PUSH4 0x118CDAA7 PUSH1 0xE0 SHL DUP2 MSTORE CALLER PUSH1 0x4 DUP3 ADD MSTORE PUSH1 0x24 SWAP1 REVERT JUMPDEST PUSH1 0x40 MLOAD PUSH4 0x23B872DD PUSH1 0xE0 SHL PUSH1 0x0 SWAP1 DUP2 MSTORE PUSH1 0x1 PUSH1 0x1 PUSH1 0xA0 SHL SUB SWAP4 DUP5 AND PUSH1 0x4 MSTORE SWAP4 DUP4 AND PUSH1 0x24 MSTORE PUSH1 0x44 SWAP5 SWAP1 SWAP5 MSTORE SWAP1 SWAP2 PUSH1 0x20 SWAP1 PUSH1 0x64 DUP2 DUP1 DUP6 GAS CALL PUSH1 0x1 PUSH1 0x0 MLOAD EQ DUP2 AND ISZERO PUSH2 0x10AF JUMPI JUMPDEST DUP4 PUSH1 0x40 MSTORE PUSH1 0x0 PUSH1 0x60 MSTORE ISZERO PUSH2 0xFF6 JUMPI POP POP POP JUMP JUMPDEST PUSH1 0x1 DUP2 ISZERO AND PUSH2 0x1022 JUMPI DUP2 EXTCODESIZE ISZERO ISZERO RETURNDATASIZE ISZERO AND AND PUSH2 0x109C JUMP INVALID SWAP12 PUSH24 0x9B17422D0DF92223018B32B4D1FA46E071723D6817E2486D STOP EXTCODESIZE 0xEC 0xC5 PUSH0 STOP LOG2 PUSH5 0x6970667358 0x22 SLT KECCAK256 CODESIZE PUSH32 0xECC61BA2676899E928926D589D04D5F4BEB2FC2F34FC8893EBF8EB19CB2E6473 PUSH16 0x6C634300081800330000000000000000 "},"methodIdentifiers":{"addPool(uint256,address,bool)":"7abceffd","deposit(uint256,uint256)":"e2bbb158","endTime()":"3197cbb6","fund(uint256)":"ca1d209d","harvest(uint256)":"ddc63262","massUpdatePools()":"630b5ba1","owner()":"8da5cb5b","pendingReward(uint256,address)":"98969e82","poolInfo(uint256)":"1526fe27","poolLength()":"081e3eda","renounceOwnership()":"715018a6","rescueTokens(address,uint256)":"57376198","rewardPerSecond()":"8f10369a","rewardToken()":"f7c618c1","setPool(uint256,uint256,bool)":"46ca6bea","setRewardPerSecond(uint256)":"66da5815","startTime()":"78e97925","totalAllocPoint()":"17caf6f1","transferOwnership(address)":"f2fde38b","updatePool(uint256)":"51eb05a6","userInfo(uint256,address)":"93f1a40b","withdraw(uint256,uint256)":"441a3e70"}}}}}