{"contracts/TokenLocker.sol":{"TokenLocker":{"abi":[{"inputs":[{"internalType":"address","name":"_feeRecipient","type":"address"},{"internalType":"uint256","name":"_feeWei","type":"uint256"}],"stateMutability":"nonpayable","type":"constructor"},{"inputs":[{"internalType":"address","name":"owner","type":"address"}],"name":"OwnableInvalidOwner","type":"error"},{"inputs":[{"internalType":"address","name":"account","type":"address"}],"name":"OwnableUnauthorizedAccount","type":"error"},{"inputs":[],"name":"ReentrancyGuardReentrantCall","type":"error"},{"inputs":[{"internalType":"address","name":"token","type":"address"}],"name":"SafeERC20FailedOperation","type":"error"},{"anonymous":false,"inputs":[{"indexed":false,"internalType":"address","name":"newRecipient","type":"address"}],"name":"FeeRecipientUpdated","type":"event"},{"anonymous":false,"inputs":[{"indexed":false,"internalType":"uint256","name":"newFeeWei","type":"uint256"}],"name":"FeeUpdated","type":"event"},{"anonymous":false,"inputs":[{"indexed":true,"internalType":"uint256","name":"lockId","type":"uint256"},{"indexed":false,"internalType":"uint256","name":"newUnlockTime","type":"uint256"}],"name":"LockExtended","type":"event"},{"anonymous":false,"inputs":[{"indexed":true,"internalType":"uint256","name":"lockId","type":"uint256"},{"indexed":true,"internalType":"address","name":"from","type":"address"},{"indexed":true,"internalType":"address","name":"to","type":"address"}],"name":"LockOwnershipTransferred","type":"event"},{"anonymous":false,"inputs":[{"indexed":true,"internalType":"uint256","name":"lockId","type":"uint256"},{"indexed":true,"internalType":"address","name":"token","type":"address"},{"indexed":true,"internalType":"address","name":"owner","type":"address"},{"indexed":false,"internalType":"uint256","name":"amount","type":"uint256"},{"indexed":false,"internalType":"uint256","name":"unlockTime","type":"uint256"}],"name":"Locked","type":"event"},{"anonymous":false,"inputs":[{"indexed":true,"internalType":"address","name":"previousOwner","type":"address"},{"indexed":true,"internalType":"address","name":"newOwner","type":"address"}],"name":"OwnershipTransferred","type":"event"},{"anonymous":false,"inputs":[{"indexed":true,"internalType":"uint256","name":"lockId","type":"uint256"},{"indexed":true,"internalType":"address","name":"owner","type":"address"}],"name":"Withdrawn","type":"event"},{"inputs":[{"internalType":"uint256","name":"lockId","type":"uint256"},{"internalType":"uint256","name":"newUnlockTime","type":"uint256"}],"name":"extendLock","outputs":[],"stateMutability":"nonpayable","type":"function"},{"inputs":[],"name":"feeRecipient","outputs":[{"internalType":"address","name":"","type":"address"}],"stateMutability":"view","type":"function"},{"inputs":[],"name":"feeWei","outputs":[{"internalType":"uint256","name":"","type":"uint256"}],"stateMutability":"view","type":"function"},{"inputs":[{"internalType":"uint256","name":"lockId","type":"uint256"}],"name":"getLock","outputs":[{"internalType":"address","name":"token","type":"address"},{"internalType":"address","name":"owner","type":"address"},{"internalType":"uint256","name":"amount","type":"uint256"},{"internalType":"uint256","name":"unlockTime","type":"uint256"},{"internalType":"bool","name":"withdrawn","type":"bool"}],"stateMutability":"view","type":"function"},{"inputs":[{"internalType":"address","name":"owner","type":"address"}],"name":"getLocksForOwner","outputs":[{"internalType":"uint256[]","name":"","type":"uint256[]"}],"stateMutability":"view","type":"function"},{"inputs":[],"name":"lockCount","outputs":[{"internalType":"uint256","name":"","type":"uint256"}],"stateMutability":"view","type":"function"},{"inputs":[{"internalType":"address","name":"token","type":"address"},{"internalType":"uint256","name":"amount","type":"uint256"},{"internalType":"uint256","name":"unlockTime","type":"uint256"}],"name":"lockTokens","outputs":[{"internalType":"uint256","name":"lockId","type":"uint256"}],"stateMutability":"payable","type":"function"},{"inputs":[{"internalType":"uint256","name":"","type":"uint256"}],"name":"locks","outputs":[{"internalType":"address","name":"token","type":"address"},{"internalType":"address","name":"owner","type":"address"},{"internalType":"uint256","name":"amount","type":"uint256"},{"internalType":"uint256","name":"unlockTime","type":"uint256"},{"internalType":"bool","name":"withdrawn","type":"bool"}],"stateMutability":"view","type":"function"},{"inputs":[],"name":"owner","outputs":[{"internalType":"address","name":"","type":"address"}],"stateMutability":"view","type":"function"},{"inputs":[],"name":"renounceOwnership","outputs":[],"stateMutability":"nonpayable","type":"function"},{"inputs":[{"internalType":"uint256","name":"_feeWei","type":"uint256"}],"name":"setFee","outputs":[],"stateMutability":"nonpayable","type":"function"},{"inputs":[{"internalType":"address","name":"_recipient","type":"address"}],"name":"setFeeRecipient","outputs":[],"stateMutability":"nonpayable","type":"function"},{"inputs":[{"internalType":"uint256","name":"lockId","type":"uint256"},{"internalType":"address","name":"newOwner","type":"address"}],"name":"transferLock","outputs":[],"stateMutability":"nonpayable","type":"function"},{"inputs":[{"internalType":"address","name":"newOwner","type":"address"}],"name":"transferOwnership","outputs":[],"stateMutability":"nonpayable","type":"function"},{"inputs":[{"internalType":"uint256","name":"lockId","type":"uint256"}],"name":"withdraw","outputs":[],"stateMutability":"nonpayable","type":"function"}],"evm":{"bytecode":{"linkReferences":{},"object":"6080346100f257601f610e0738819003918201601f19168301916001600160401b038311848410176100f75780849260409485528339810103126100f25780516001600160a01b0391828216918290036100f257602001519060017f9b779b17422d0df92223018b32b4d1fa46e071723d6817e2486d003becc55f005533156100d95760005460018060a01b0319903382821617600055604051943391167f8be0079c531659141344cd1fd0a4f28419497f9722a3daafe3b4186f6b6457e0600080a36005541617600555600455610cf9908161010e8239f35b604051631e4fbdf760e01b815260006004820152602490fd5b600080fd5b634e487b7160e01b600052604160045260246000fdfe6040608081526004908136101561001557600080fd5b6000803560e01c8063070d66bf146109fa5780632e1a7d4d1461089d578063428c090b1461087f578063469048401461085657806369fe0e2d14610808578063715018a6146107ae5780638da5cb5b146107865780639b10b6f514610767578063a25983e514610402578063b48dd3be1461034c578063b8f37ba1146102a0578063d68f4dd114610236578063e74b981b146101bc578063f2fde38b146101315763f4dadc61146100c557600080fd5b3461012e57602036600319011261012e5782358152600160208181529183902080549181015460028201546003830154929096015494516001600160a01b0393841681529216928201929092526040810193909352606083015260ff161515608082015260a090f35b80fd5b5091346101b85760203660031901126101b85761014c610ac6565b90610155610c97565b6001600160a01b039182169283156101a257505082546001600160a01b0319811683178455167f8be0079c531659141344cd1fd0a4f28419497f9722a3daafe3b4186f6b6457e08380a380f35b51631e4fbdf760e01b8152908101849052602490fd5b8280fd5b5090346102325760203660031901126102325760207f7a7b5a0a132f9e0581eb8527f66eae9ee89c2a3e79d4ac7e41a1f1f4d48a7fc2916101fb610ac6565b610203610c97565b6001600160a01b031690610218821515610c1a565b600580546001600160a01b0319168317905551908152a180f35b5080fd5b503461012e57602036600319011261012e5782358152600160208181529183902080549181015460028201546003830154929096015494516001600160a01b0393841681529216928201929092526040810193909352606083015260ff161515608082015260a090f35b503461012e576020908160031936011261012e5782906001600160a01b036102c6610ac6565b16815260028352818120908251808584549182815201908194845286842090845b81811061033857505050816102fd910382610b5e565b83519485948186019282875251809352850193925b82811061032157505050500390f35b835185528695509381019392810192600101610312565b8254845292880192600192830192016102e7565b5091346101b857816003193601126101b8576024356001600160a01b038181169390928035928590036103fe576103d7918391828852600160205286828920966103b060ff60018a019485549384169a6103a7338d14610ae1565b01541615610b1e565b6103bb821515610c1a565b6001600160a01b03191617905585875260026020528620610bd6565b7f94cb47eeeeb76a68c4d24f7c656bc9e63d5bc82211fc7784b33e438103b2f8738480a480f35b8580fd5b5090606036600319011261023257610418610ac6565b9160249384359060449283359061042d610c55565b831561073157428211156106f05782548034106106b7571515806106a3575b1561065757808080803460018060a01b03600554165af161046b610b96565b5015610620575b85516323b872dd60e01b8252338452308952948490526020976001600160a01b039788169390898360648180895af19660019788855114811615610602575b818a5284606052156105f05750600354986000198a146105de57878a0160035588519160a083019083821067ffffffffffffffff8311176105cd57508a938a9361057696938e938652898252838201338152868301908c82528d60608501938c85528160808701988a8a528c8b5252808a8a20965116916bffffffffffffffffffffffff60a01b9283885416178755860192511690825416179055516002830155516003820155019051151560ff8019835416911617905533815260028b5220610bd6565b845192835286830152847f1cb39d6ecc8f823fa6183785ee795ddcb2873e92effbff9b9a377ef761035676853394a47f9b779b17422d0df92223018b32b4d1fa46e071723d6817e2486d003becc55f005551908152f35b634e487b7160e01b86526041855285fd5b50634e487b7160e01b83526011825282fd5b635274afe760e01b8152808301869052fd5b8881151661061757863b15153d1516166104b1565b503d84823e3d90fd5b855162461bcd60e51b81526020818501526013818a015272119959481d1c985b9cd9995c8819985a5b1959606a1b81870152606490fd5b3415610472578080808034335af161066d610b96565b5061047257855162461bcd60e51b8152602081850152600d818a01526c1499599d5b990819985a5b1959609a1b81870152606490fd5b506005546001600160a01b0316151561044c565b865162461bcd60e51b81526020818601526015818b015274496e73756666696369656e74206c6f636b2066656560581b81880152606490fd5b855162461bcd60e51b8152602081850152601d818a01527f556e6c6f636b2074696d65206d75737420626520696e2066757475726500000081870152606490fd5b855162461bcd60e51b81526020818501526012818a0152710416d6f756e74206d757374206265203e20360741b81870152606490fd5b5090346102325781600319360112610232576020906003549051908152f35b509034610232578160031936011261023257905490516001600160a01b039091168152602090f35b503461012e578060031936011261012e576107c7610c97565b80546001600160a01b03198116825581906001600160a01b03167f8be0079c531659141344cd1fd0a4f28419497f9722a3daafe3b4186f6b6457e08280a380f35b509190346101b85760203660031901126101b857816020917f8c4d35e54a3f2ef1134138fd8ea3daee6a3c89e10d2665996babdf70261e2c769335809261084d610c97565b5551908152a180f35b50903461023257816003193601126102325760055490516001600160a01b039091168152602090f35b5091346101b857826003193601126101b85760209250549051908152f35b509190346101b85760203660031901126101b8578135906108bc610c55565b818452600192836020528185209060018060a01b036108e18187850154163314610ae1565b81830180546108f360ff821615610b1e565b600385015442106109c85790876002939260ff19161790558354169201549280519363a9059cbb60e01b88523383526024528360208860448180885af191878951148316156109a4575b52156109915750505033907f8c7cdad0d12a8db3e23561b42da6f10c8137914c97beff202213a410e1f520a38480a37f9b779b17422d0df92223018b32b4d1fa46e071723d6817e2486d003becc55f005580f35b635274afe760e01b835282015260249150fd5b919050868115166109bf578490843b15153d1516169161093d565b843d89823e3d90fd5b855162461bcd60e51b8152602081860152600c60248201526b14dd1a5b1b081b1bd8dad95960a21b6044820152606490fd5b5091346101b857816003193601126101b8578035916024359183855260016020526003828620610a3760018060a01b036001830154163314610ae1565b610a4760ff848301541615610b1e565b01908154841115610a83575091602091817f4e4187a5cfd31a235276a431f3c394962d1b05cc4da52f6fa4e5460a5808ee21945551908152a280f35b606490602084519162461bcd60e51b8352820152601760248201527f43616e6e6f7420726564756365206c6f636b2074696d650000000000000000006044820152fd5b600435906001600160a01b0382168203610adc57565b600080fd5b15610ae857565b60405162461bcd60e51b815260206004820152600e60248201526d2737ba103637b1b59037bbb732b960911b6044820152606490fd5b15610b2557565b60405162461bcd60e51b815260206004820152601160248201527020b63932b0b23c903bb4ba34323930bbb760791b6044820152606490fd5b90601f8019910116810190811067ffffffffffffffff821117610b8057604052565b634e487b7160e01b600052604160045260246000fd5b3d15610bd1573d9067ffffffffffffffff8211610b805760405191610bc5601f8201601f191660200184610b5e565b82523d6000602084013e565b606090565b80549068010000000000000000821015610b805760018201808255821015610c045760005260206000200155565b634e487b7160e01b600052603260045260246000fd5b15610c2157565b60405162461bcd60e51b815260206004820152600c60248201526b5a65726f206164647265737360a01b6044820152606490fd5b7f9b779b17422d0df92223018b32b4d1fa46e071723d6817e2486d003becc55f006002815414610c855760029055565b604051633ee5aeb560e01b8152600490fd5b6000546001600160a01b03163303610cab57565b60405163118cdaa760e01b8152336004820152602490fdfea26469706673582212205bc8cefa5199a7075e9ed11ac2d34e4953410e2495e54b5fe9c408ab56cf432964736f6c63430008180033","opcodes":"PUSH1 0x80 CALLVALUE PUSH2 0xF2 JUMPI PUSH1 0x1F PUSH2 0xE07 CODESIZE DUP2 SWAP1 SUB SWAP2 DUP3 ADD PUSH1 0x1F NOT AND DUP4 ADD SWAP2 PUSH1 0x1 PUSH1 0x1 PUSH1 0x40 SHL SUB DUP4 GT DUP5 DUP5 LT OR PUSH2 0xF7 JUMPI DUP1 DUP5 SWAP3 PUSH1 0x40 SWAP5 DUP6 MSTORE DUP4 CODECOPY DUP2 ADD SUB SLT PUSH2 0xF2 JUMPI DUP1 MLOAD PUSH1 0x1 PUSH1 0x1 PUSH1 0xA0 SHL SUB SWAP2 DUP3 DUP3 AND SWAP2 DUP3 SWAP1 SUB PUSH2 0xF2 JUMPI PUSH1 0x20 ADD MLOAD SWAP1 PUSH1 0x1 PUSH32 0x9B779B17422D0DF92223018B32B4D1FA46E071723D6817E2486D003BECC55F00 SSTORE CALLER ISZERO PUSH2 0xD9 JUMPI PUSH1 0x0 SLOAD PUSH1 0x1 DUP1 PUSH1 0xA0 SHL SUB NOT SWAP1 CALLER DUP3 DUP3 AND OR PUSH1 0x0 SSTORE PUSH1 0x40 MLOAD SWAP5 CALLER SWAP2 AND PUSH32 0x8BE0079C531659141344CD1FD0A4F28419497F9722A3DAAFE3B4186F6B6457E0 PUSH1 0x0 DUP1 LOG3 PUSH1 0x5 SLOAD AND OR PUSH1 0x5 SSTORE PUSH1 0x4 SSTORE PUSH2 0xCF9 SWAP1 DUP2 PUSH2 0x10E DUP3 CODECOPY RETURN JUMPDEST PUSH1 0x40 MLOAD PUSH4 0x1E4FBDF7 PUSH1 0xE0 SHL DUP2 MSTORE PUSH1 0x0 PUSH1 0x4 DUP3 ADD MSTORE PUSH1 0x24 SWAP1 REVERT JUMPDEST PUSH1 0x0 DUP1 REVERT JUMPDEST PUSH4 0x4E487B71 PUSH1 0xE0 SHL PUSH1 0x0 MSTORE PUSH1 0x41 PUSH1 0x4 MSTORE PUSH1 0x24 PUSH1 0x0 REVERT INVALID PUSH1 0x40 PUSH1 0x80 DUP2 MSTORE PUSH1 0x4 SWAP1 DUP2 CALLDATASIZE LT ISZERO PUSH2 0x15 JUMPI PUSH1 0x0 DUP1 REVERT JUMPDEST PUSH1 0x0 DUP1 CALLDATALOAD PUSH1 0xE0 SHR DUP1 PUSH4 0x70D66BF EQ PUSH2 0x9FA JUMPI DUP1 PUSH4 0x2E1A7D4D EQ PUSH2 0x89D JUMPI DUP1 PUSH4 0x428C090B EQ PUSH2 0x87F JUMPI DUP1 PUSH4 0x46904840 EQ PUSH2 0x856 JUMPI DUP1 PUSH4 0x69FE0E2D EQ PUSH2 0x808 JUMPI DUP1 PUSH4 0x715018A6 EQ PUSH2 0x7AE JUMPI DUP1 PUSH4 0x8DA5CB5B EQ PUSH2 0x786 JUMPI DUP1 PUSH4 0x9B10B6F5 EQ PUSH2 0x767 JUMPI DUP1 PUSH4 0xA25983E5 EQ PUSH2 0x402 JUMPI DUP1 PUSH4 0xB48DD3BE EQ PUSH2 0x34C JUMPI DUP1 PUSH4 0xB8F37BA1 EQ PUSH2 0x2A0 JUMPI DUP1 PUSH4 0xD68F4DD1 EQ PUSH2 0x236 JUMPI DUP1 PUSH4 0xE74B981B EQ PUSH2 0x1BC JUMPI DUP1 PUSH4 0xF2FDE38B EQ PUSH2 0x131 JUMPI PUSH4 0xF4DADC61 EQ PUSH2 0xC5 JUMPI PUSH1 0x0 DUP1 REVERT JUMPDEST CALLVALUE PUSH2 0x12E JUMPI PUSH1 0x20 CALLDATASIZE PUSH1 0x3 NOT ADD SLT PUSH2 0x12E JUMPI DUP3 CALLDATALOAD DUP2 MSTORE PUSH1 0x1 PUSH1 0x20 DUP2 DUP2 MSTORE SWAP2 DUP4 SWAP1 KECCAK256 DUP1 SLOAD SWAP2 DUP2 ADD SLOAD PUSH1 0x2 DUP3 ADD SLOAD PUSH1 0x3 DUP4 ADD SLOAD SWAP3 SWAP1 SWAP7 ADD SLOAD SWAP5 MLOAD PUSH1 0x1 PUSH1 0x1 PUSH1 0xA0 SHL SUB SWAP4 DUP5 AND DUP2 MSTORE SWAP3 AND SWAP3 DUP3 ADD SWAP3 SWAP1 SWAP3 MSTORE PUSH1 0x40 DUP2 ADD SWAP4 SWAP1 SWAP4 MSTORE PUSH1 0x60 DUP4 ADD MSTORE PUSH1 0xFF AND ISZERO ISZERO PUSH1 0x80 DUP3 ADD MSTORE PUSH1 0xA0 SWAP1 RETURN JUMPDEST DUP1 REVERT JUMPDEST POP SWAP2 CALLVALUE PUSH2 0x1B8 JUMPI PUSH1 0x20 CALLDATASIZE PUSH1 0x3 NOT ADD SLT PUSH2 0x1B8 JUMPI PUSH2 0x14C PUSH2 0xAC6 JUMP JUMPDEST SWAP1 PUSH2 0x155 PUSH2 0xC97 JUMP JUMPDEST PUSH1 0x1 PUSH1 0x1 PUSH1 0xA0 SHL SUB SWAP2 DUP3 AND SWAP3 DUP4 ISZERO PUSH2 0x1A2 JUMPI POP POP DUP3 SLOAD PUSH1 0x1 PUSH1 0x1 PUSH1 0xA0 SHL SUB NOT DUP2 AND DUP4 OR DUP5 SSTORE AND PUSH32 0x8BE0079C531659141344CD1FD0A4F28419497F9722A3DAAFE3B4186F6B6457E0 DUP4 DUP1 LOG3 DUP1 RETURN JUMPDEST MLOAD PUSH4 0x1E4FBDF7 PUSH1 0xE0 SHL DUP2 MSTORE SWAP1 DUP2 ADD DUP5 SWAP1 MSTORE PUSH1 0x24 SWAP1 REVERT JUMPDEST DUP3 DUP1 REVERT JUMPDEST POP SWAP1 CALLVALUE PUSH2 0x232 JUMPI PUSH1 0x20 CALLDATASIZE PUSH1 0x3 NOT ADD SLT PUSH2 0x232 JUMPI PUSH1 0x20 PUSH32 0x7A7B5A0A132F9E0581EB8527F66EAE9EE89C2A3E79D4AC7E41A1F1F4D48A7FC2 SWAP2 PUSH2 0x1FB PUSH2 0xAC6 JUMP JUMPDEST PUSH2 0x203 PUSH2 0xC97 JUMP JUMPDEST PUSH1 0x1 PUSH1 0x1 PUSH1 0xA0 SHL SUB AND SWAP1 PUSH2 0x218 DUP3 ISZERO ISZERO PUSH2 0xC1A JUMP JUMPDEST PUSH1 0x5 DUP1 SLOAD PUSH1 0x1 PUSH1 0x1 PUSH1 0xA0 SHL SUB NOT AND DUP4 OR SWAP1 SSTORE MLOAD SWAP1 DUP2 MSTORE LOG1 DUP1 RETURN JUMPDEST POP DUP1 REVERT JUMPDEST POP CALLVALUE PUSH2 0x12E JUMPI PUSH1 0x20 CALLDATASIZE PUSH1 0x3 NOT ADD SLT PUSH2 0x12E JUMPI DUP3 CALLDATALOAD DUP2 MSTORE PUSH1 0x1 PUSH1 0x20 DUP2 DUP2 MSTORE SWAP2 DUP4 SWAP1 KECCAK256 DUP1 SLOAD SWAP2 DUP2 ADD SLOAD PUSH1 0x2 DUP3 ADD SLOAD PUSH1 0x3 DUP4 ADD SLOAD SWAP3 SWAP1 SWAP7 ADD SLOAD SWAP5 MLOAD PUSH1 0x1 PUSH1 0x1 PUSH1 0xA0 SHL SUB SWAP4 DUP5 AND DUP2 MSTORE SWAP3 AND SWAP3 DUP3 ADD SWAP3 SWAP1 SWAP3 MSTORE PUSH1 0x40 DUP2 ADD SWAP4 SWAP1 SWAP4 MSTORE PUSH1 0x60 DUP4 ADD MSTORE PUSH1 0xFF AND ISZERO ISZERO PUSH1 0x80 DUP3 ADD MSTORE PUSH1 0xA0 SWAP1 RETURN JUMPDEST POP CALLVALUE PUSH2 0x12E JUMPI PUSH1 0x20 SWAP1 DUP2 PUSH1 0x3 NOT CALLDATASIZE ADD SLT PUSH2 0x12E JUMPI DUP3 SWAP1 PUSH1 0x1 PUSH1 0x1 PUSH1 0xA0 SHL SUB PUSH2 0x2C6 PUSH2 0xAC6 JUMP JUMPDEST AND DUP2 MSTORE PUSH1 0x2 DUP4 MSTORE DUP2 DUP2 KECCAK256 SWAP1 DUP3 MLOAD DUP1 DUP6 DUP5 SLOAD SWAP2 DUP3 DUP2 MSTORE ADD SWAP1 DUP2 SWAP5 DUP5 MSTORE DUP7 DUP5 KECCAK256 SWAP1 DUP5 JUMPDEST DUP2 DUP2 LT PUSH2 0x338 JUMPI POP POP POP DUP2 PUSH2 0x2FD SWAP2 SUB DUP3 PUSH2 0xB5E JUMP JUMPDEST DUP4 MLOAD SWAP5 DUP6 SWAP5 DUP2 DUP7 ADD SWAP3 DUP3 DUP8 MSTORE MLOAD DUP1 SWAP4 MSTORE DUP6 ADD SWAP4 SWAP3 JUMPDEST DUP3 DUP2 LT PUSH2 0x321 JUMPI POP POP POP POP SUB SWAP1 RETURN JUMPDEST DUP4 MLOAD DUP6 MSTORE DUP7 SWAP6 POP SWAP4 DUP2 ADD SWAP4 SWAP3 DUP2 ADD SWAP3 PUSH1 0x1 ADD PUSH2 0x312 JUMP JUMPDEST DUP3 SLOAD DUP5 MSTORE SWAP3 DUP9 ADD SWAP3 PUSH1 0x1 SWAP3 DUP4 ADD SWAP3 ADD PUSH2 0x2E7 JUMP JUMPDEST POP SWAP2 CALLVALUE PUSH2 0x1B8 JUMPI DUP2 PUSH1 0x3 NOT CALLDATASIZE ADD SLT PUSH2 0x1B8 JUMPI PUSH1 0x24 CALLDATALOAD PUSH1 0x1 PUSH1 0x1 PUSH1 0xA0 SHL SUB DUP2 DUP2 AND SWAP4 SWAP1 SWAP3 DUP1 CALLDATALOAD SWAP3 DUP6 SWAP1 SUB PUSH2 0x3FE JUMPI PUSH2 0x3D7 SWAP2 DUP4 SWAP2 DUP3 DUP9 MSTORE PUSH1 0x1 PUSH1 0x20 MSTORE DUP7 DUP3 DUP10 KECCAK256 SWAP7 PUSH2 0x3B0 PUSH1 0xFF PUSH1 0x1 DUP11 ADD SWAP5 DUP6 SLOAD SWAP4 DUP5 AND SWAP11 PUSH2 0x3A7 CALLER DUP14 EQ PUSH2 0xAE1 JUMP JUMPDEST ADD SLOAD AND ISZERO PUSH2 0xB1E JUMP JUMPDEST PUSH2 0x3BB DUP3 ISZERO ISZERO PUSH2 0xC1A JUMP JUMPDEST PUSH1 0x1 PUSH1 0x1 PUSH1 0xA0 SHL SUB NOT AND OR SWAP1 SSTORE DUP6 DUP8 MSTORE PUSH1 0x2 PUSH1 0x20 MSTORE DUP7 KECCAK256 PUSH2 0xBD6 JUMP JUMPDEST PUSH32 0x94CB47EEEEB76A68C4D24F7C656BC9E63D5BC82211FC7784B33E438103B2F873 DUP5 DUP1 LOG4 DUP1 RETURN JUMPDEST DUP6 DUP1 REVERT JUMPDEST POP SWAP1 PUSH1 0x60 CALLDATASIZE PUSH1 0x3 NOT ADD SLT PUSH2 0x232 JUMPI PUSH2 0x418 PUSH2 0xAC6 JUMP JUMPDEST SWAP2 PUSH1 0x24 SWAP4 DUP5 CALLDATALOAD SWAP1 PUSH1 0x44 SWAP3 DUP4 CALLDATALOAD SWAP1 PUSH2 0x42D PUSH2 0xC55 JUMP JUMPDEST DUP4 ISZERO PUSH2 0x731 JUMPI TIMESTAMP DUP3 GT ISZERO PUSH2 0x6F0 JUMPI DUP3 SLOAD DUP1 CALLVALUE LT PUSH2 0x6B7 JUMPI ISZERO ISZERO DUP1 PUSH2 0x6A3 JUMPI JUMPDEST ISZERO PUSH2 0x657 JUMPI DUP1 DUP1 DUP1 DUP1 CALLVALUE PUSH1 0x1 DUP1 PUSH1 0xA0 SHL SUB PUSH1 0x5 SLOAD AND GAS CALL PUSH2 0x46B PUSH2 0xB96 JUMP JUMPDEST POP ISZERO PUSH2 0x620 JUMPI JUMPDEST DUP6 MLOAD PUSH4 0x23B872DD PUSH1 0xE0 SHL DUP3 MSTORE CALLER DUP5 MSTORE ADDRESS DUP10 MSTORE SWAP5 DUP5 SWAP1 MSTORE PUSH1 0x20 SWAP8 PUSH1 0x1 PUSH1 0x1 PUSH1 0xA0 SHL SUB SWAP8 DUP9 AND SWAP4 SWAP1 DUP10 DUP4 PUSH1 0x64 DUP2 DUP1 DUP10 GAS CALL SWAP7 PUSH1 0x1 SWAP8 DUP9 DUP6 MLOAD EQ DUP2 AND ISZERO PUSH2 0x602 JUMPI JUMPDEST DUP2 DUP11 MSTORE DUP5 PUSH1 0x60 MSTORE ISZERO PUSH2 0x5F0 JUMPI POP PUSH1 0x3 SLOAD SWAP9 PUSH1 0x0 NOT DUP11 EQ PUSH2 0x5DE JUMPI DUP8 DUP11 ADD PUSH1 0x3 SSTORE DUP9 MLOAD SWAP2 PUSH1 0xA0 DUP4 ADD SWAP1 DUP4 DUP3 LT PUSH8 0xFFFFFFFFFFFFFFFF DUP4 GT OR PUSH2 0x5CD JUMPI POP DUP11 SWAP4 DUP11 SWAP4 PUSH2 0x576 SWAP7 SWAP4 DUP15 SWAP4 DUP7 MSTORE DUP10 DUP3 MSTORE DUP4 DUP3 ADD CALLER DUP2 MSTORE DUP7 DUP4 ADD SWAP1 DUP13 DUP3 MSTORE DUP14 PUSH1 0x60 DUP6 ADD SWAP4 DUP13 DUP6 MSTORE DUP2 PUSH1 0x80 DUP8 ADD SWAP9 DUP11 DUP11 MSTORE DUP13 DUP12 MSTORE MSTORE DUP1 DUP11 DUP11 KECCAK256 SWAP7 MLOAD AND SWAP2 PUSH12 0xFFFFFFFFFFFFFFFFFFFFFFFF PUSH1 0xA0 SHL SWAP3 DUP4 DUP9 SLOAD AND OR DUP8 SSTORE DUP7 ADD SWAP3 MLOAD AND SWAP1 DUP3 SLOAD AND OR SWAP1 SSTORE MLOAD PUSH1 0x2 DUP4 ADD SSTORE MLOAD PUSH1 0x3 DUP3 ADD SSTORE ADD SWAP1 MLOAD ISZERO ISZERO PUSH1 0xFF DUP1 NOT DUP4 SLOAD AND SWAP2 AND OR SWAP1 SSTORE CALLER DUP2 MSTORE PUSH1 0x2 DUP12 MSTORE KECCAK256 PUSH2 0xBD6 JUMP JUMPDEST DUP5 MLOAD SWAP3 DUP4 MSTORE DUP7 DUP4 ADD MSTORE DUP5 PUSH32 0x1CB39D6ECC8F823FA6183785EE795DDCB2873E92EFFBFF9B9A377EF761035676 DUP6 CALLER SWAP5 LOG4 PUSH32 0x9B779B17422D0DF92223018B32B4D1FA46E071723D6817E2486D003BECC55F00 SSTORE MLOAD SWAP1 DUP2 MSTORE RETURN JUMPDEST PUSH4 0x4E487B71 PUSH1 0xE0 SHL DUP7 MSTORE PUSH1 0x41 DUP6 MSTORE DUP6 REVERT JUMPDEST POP PUSH4 0x4E487B71 PUSH1 0xE0 SHL DUP4 MSTORE PUSH1 0x11 DUP3 MSTORE DUP3 REVERT JUMPDEST PUSH4 0x5274AFE7 PUSH1 0xE0 SHL DUP2 MSTORE DUP1 DUP4 ADD DUP7 SWAP1 MSTORE REVERT JUMPDEST DUP9 DUP2 ISZERO AND PUSH2 0x617 JUMPI DUP7 EXTCODESIZE ISZERO ISZERO RETURNDATASIZE ISZERO AND AND PUSH2 0x4B1 JUMP JUMPDEST POP RETURNDATASIZE DUP5 DUP3 RETURNDATACOPY RETURNDATASIZE SWAP1 REVERT JUMPDEST DUP6 MLOAD PUSH3 0x461BCD PUSH1 0xE5 SHL DUP2 MSTORE PUSH1 0x20 DUP2 DUP6 ADD MSTORE PUSH1 0x13 DUP2 DUP11 ADD MSTORE PUSH19 0x119959481D1C985B9CD9995C8819985A5B1959 PUSH1 0x6A SHL DUP2 DUP8 ADD MSTORE PUSH1 0x64 SWAP1 REVERT JUMPDEST CALLVALUE ISZERO PUSH2 0x472 JUMPI DUP1 DUP1 DUP1 DUP1 CALLVALUE CALLER GAS CALL PUSH2 0x66D PUSH2 0xB96 JUMP JUMPDEST POP PUSH2 0x472 JUMPI DUP6 MLOAD PUSH3 0x461BCD PUSH1 0xE5 SHL DUP2 MSTORE PUSH1 0x20 DUP2 DUP6 ADD MSTORE PUSH1 0xD DUP2 DUP11 ADD MSTORE PUSH13 0x1499599D5B990819985A5B1959 PUSH1 0x9A SHL DUP2 DUP8 ADD MSTORE PUSH1 0x64 SWAP1 REVERT JUMPDEST POP PUSH1 0x5 SLOAD PUSH1 0x1 PUSH1 0x1 PUSH1 0xA0 SHL SUB AND ISZERO ISZERO PUSH2 0x44C JUMP JUMPDEST DUP7 MLOAD PUSH3 0x461BCD PUSH1 0xE5 SHL DUP2 MSTORE PUSH1 0x20 DUP2 DUP7 ADD MSTORE PUSH1 0x15 DUP2 DUP12 ADD MSTORE PUSH21 0x496E73756666696369656E74206C6F636B20666565 PUSH1 0x58 SHL DUP2 DUP9 ADD MSTORE PUSH1 0x64 SWAP1 REVERT JUMPDEST DUP6 MLOAD PUSH3 0x461BCD PUSH1 0xE5 SHL DUP2 MSTORE PUSH1 0x20 DUP2 DUP6 ADD MSTORE PUSH1 0x1D DUP2 DUP11 ADD MSTORE PUSH32 0x556E6C6F636B2074696D65206D75737420626520696E20667574757265000000 DUP2 DUP8 ADD MSTORE PUSH1 0x64 SWAP1 REVERT JUMPDEST DUP6 MLOAD PUSH3 0x461BCD PUSH1 0xE5 SHL DUP2 MSTORE PUSH1 0x20 DUP2 DUP6 ADD MSTORE PUSH1 0x12 DUP2 DUP11 ADD MSTORE PUSH18 0x416D6F756E74206D757374206265203E203 PUSH1 0x74 SHL DUP2 DUP8 ADD MSTORE PUSH1 0x64 SWAP1 REVERT JUMPDEST POP SWAP1 CALLVALUE PUSH2 0x232 JUMPI DUP2 PUSH1 0x3 NOT CALLDATASIZE ADD SLT PUSH2 0x232 JUMPI PUSH1 0x20 SWAP1 PUSH1 0x3 SLOAD SWAP1 MLOAD SWAP1 DUP2 MSTORE RETURN JUMPDEST POP SWAP1 CALLVALUE PUSH2 0x232 JUMPI DUP2 PUSH1 0x3 NOT CALLDATASIZE ADD SLT PUSH2 0x232 JUMPI SWAP1 SLOAD SWAP1 MLOAD PUSH1 0x1 PUSH1 0x1 PUSH1 0xA0 SHL SUB SWAP1 SWAP2 AND DUP2 MSTORE PUSH1 0x20 SWAP1 RETURN JUMPDEST POP CALLVALUE PUSH2 0x12E JUMPI DUP1 PUSH1 0x3 NOT CALLDATASIZE ADD SLT PUSH2 0x12E JUMPI PUSH2 0x7C7 PUSH2 0xC97 JUMP JUMPDEST DUP1 SLOAD PUSH1 0x1 PUSH1 0x1 PUSH1 0xA0 SHL SUB NOT DUP2 AND DUP3 SSTORE DUP2 SWAP1 PUSH1 0x1 PUSH1 0x1 PUSH1 0xA0 SHL SUB AND PUSH32 0x8BE0079C531659141344CD1FD0A4F28419497F9722A3DAAFE3B4186F6B6457E0 DUP3 DUP1 LOG3 DUP1 RETURN JUMPDEST POP SWAP2 SWAP1 CALLVALUE PUSH2 0x1B8 JUMPI PUSH1 0x20 CALLDATASIZE PUSH1 0x3 NOT ADD SLT PUSH2 0x1B8 JUMPI DUP2 PUSH1 0x20 SWAP2 PUSH32 0x8C4D35E54A3F2EF1134138FD8EA3DAEE6A3C89E10D2665996BABDF70261E2C76 SWAP4 CALLDATALOAD DUP1 SWAP3 PUSH2 0x84D PUSH2 0xC97 JUMP JUMPDEST SSTORE MLOAD SWAP1 DUP2 MSTORE LOG1 DUP1 RETURN JUMPDEST POP SWAP1 CALLVALUE PUSH2 0x232 JUMPI DUP2 PUSH1 0x3 NOT CALLDATASIZE ADD SLT PUSH2 0x232 JUMPI PUSH1 0x5 SLOAD SWAP1 MLOAD PUSH1 0x1 PUSH1 0x1 PUSH1 0xA0 SHL SUB SWAP1 SWAP2 AND DUP2 MSTORE PUSH1 0x20 SWAP1 RETURN JUMPDEST POP SWAP2 CALLVALUE PUSH2 0x1B8 JUMPI DUP3 PUSH1 0x3 NOT CALLDATASIZE ADD SLT PUSH2 0x1B8 JUMPI PUSH1 0x20 SWAP3 POP SLOAD SWAP1 MLOAD SWAP1 DUP2 MSTORE RETURN JUMPDEST POP SWAP2 SWAP1 CALLVALUE PUSH2 0x1B8 JUMPI PUSH1 0x20 CALLDATASIZE PUSH1 0x3 NOT ADD SLT PUSH2 0x1B8 JUMPI DUP2 CALLDATALOAD SWAP1 PUSH2 0x8BC PUSH2 0xC55 JUMP JUMPDEST DUP2 DUP5 MSTORE PUSH1 0x1 SWAP3 DUP4 PUSH1 0x20 MSTORE DUP2 DUP6 KECCAK256 SWAP1 PUSH1 0x1 DUP1 PUSH1 0xA0 SHL SUB PUSH2 0x8E1 DUP2 DUP8 DUP6 ADD SLOAD AND CALLER EQ PUSH2 0xAE1 JUMP JUMPDEST DUP2 DUP4 ADD DUP1 SLOAD PUSH2 0x8F3 PUSH1 0xFF DUP3 AND ISZERO PUSH2 0xB1E JUMP JUMPDEST PUSH1 0x3 DUP6 ADD SLOAD TIMESTAMP LT PUSH2 0x9C8 JUMPI SWAP1 DUP8 PUSH1 0x2 SWAP4 SWAP3 PUSH1 0xFF NOT AND OR SWAP1 SSTORE DUP4 SLOAD AND SWAP3 ADD SLOAD SWAP3 DUP1 MLOAD SWAP4 PUSH4 0xA9059CBB PUSH1 0xE0 SHL DUP9 MSTORE CALLER DUP4 MSTORE PUSH1 0x24 MSTORE DUP4 PUSH1 0x20 DUP9 PUSH1 0x44 DUP2 DUP1 DUP9 GAS CALL SWAP2 DUP8 DUP10 MLOAD EQ DUP4 AND ISZERO PUSH2 0x9A4 JUMPI JUMPDEST MSTORE ISZERO PUSH2 0x991 JUMPI POP POP POP CALLER SWAP1 PUSH32 0x8C7CDAD0D12A8DB3E23561B42DA6F10C8137914C97BEFF202213A410E1F520A3 DUP5 DUP1 LOG3 PUSH32 0x9B779B17422D0DF92223018B32B4D1FA46E071723D6817E2486D003BECC55F00 SSTORE DUP1 RETURN JUMPDEST PUSH4 0x5274AFE7 PUSH1 0xE0 SHL DUP4 MSTORE DUP3 ADD MSTORE PUSH1 0x24 SWAP2 POP REVERT JUMPDEST SWAP2 SWAP1 POP DUP7 DUP2 ISZERO AND PUSH2 0x9BF JUMPI DUP5 SWAP1 DUP5 EXTCODESIZE ISZERO ISZERO RETURNDATASIZE ISZERO AND AND SWAP2 PUSH2 0x93D JUMP JUMPDEST DUP5 RETURNDATASIZE DUP10 DUP3 RETURNDATACOPY RETURNDATASIZE SWAP1 REVERT JUMPDEST DUP6 MLOAD PUSH3 0x461BCD PUSH1 0xE5 SHL DUP2 MSTORE PUSH1 0x20 DUP2 DUP7 ADD MSTORE PUSH1 0xC PUSH1 0x24 DUP3 ADD MSTORE PUSH12 0x14DD1A5B1B081B1BD8DAD959 PUSH1 0xA2 SHL PUSH1 0x44 DUP3 ADD MSTORE PUSH1 0x64 SWAP1 REVERT JUMPDEST POP SWAP2 CALLVALUE PUSH2 0x1B8 JUMPI DUP2 PUSH1 0x3 NOT CALLDATASIZE ADD SLT PUSH2 0x1B8 JUMPI DUP1 CALLDATALOAD SWAP2 PUSH1 0x24 CALLDATALOAD SWAP2 DUP4 DUP6 MSTORE PUSH1 0x1 PUSH1 0x20 MSTORE PUSH1 0x3 DUP3 DUP7 KECCAK256 PUSH2 0xA37 PUSH1 0x1 DUP1 PUSH1 0xA0 SHL SUB PUSH1 0x1 DUP4 ADD SLOAD AND CALLER EQ PUSH2 0xAE1 JUMP JUMPDEST PUSH2 0xA47 PUSH1 0xFF DUP5 DUP4 ADD SLOAD AND ISZERO PUSH2 0xB1E JUMP JUMPDEST ADD SWAP1 DUP2 SLOAD DUP5 GT ISZERO PUSH2 0xA83 JUMPI POP SWAP2 PUSH1 0x20 SWAP2 DUP2 PUSH32 0x4E4187A5CFD31A235276A431F3C394962D1B05CC4DA52F6FA4E5460A5808EE21 SWAP5 SSTORE MLOAD SWAP1 DUP2 MSTORE LOG2 DUP1 RETURN JUMPDEST PUSH1 0x64 SWAP1 PUSH1 0x20 DUP5 MLOAD SWAP2 PUSH3 0x461BCD PUSH1 0xE5 SHL DUP4 MSTORE DUP3 ADD MSTORE PUSH1 0x17 PUSH1 0x24 DUP3 ADD MSTORE PUSH32 0x43616E6E6F7420726564756365206C6F636B2074696D65000000000000000000 PUSH1 0x44 DUP3 ADD MSTORE REVERT JUMPDEST PUSH1 0x4 CALLDATALOAD SWAP1 PUSH1 0x1 PUSH1 0x1 PUSH1 0xA0 SHL SUB DUP3 AND DUP3 SUB PUSH2 0xADC JUMPI JUMP JUMPDEST PUSH1 0x0 DUP1 REVERT JUMPDEST ISZERO PUSH2 0xAE8 JUMPI JUMP JUMPDEST PUSH1 0x40 MLOAD PUSH3 0x461BCD PUSH1 0xE5 SHL DUP2 MSTORE PUSH1 0x20 PUSH1 0x4 DUP3 ADD MSTORE PUSH1 0xE PUSH1 0x24 DUP3 ADD MSTORE PUSH14 0x2737BA103637B1B59037BBB732B9 PUSH1 0x91 SHL PUSH1 0x44 DUP3 ADD MSTORE PUSH1 0x64 SWAP1 REVERT JUMPDEST ISZERO PUSH2 0xB25 JUMPI JUMP JUMPDEST PUSH1 0x40 MLOAD PUSH3 0x461BCD PUSH1 0xE5 SHL DUP2 MSTORE PUSH1 0x20 PUSH1 0x4 DUP3 ADD MSTORE PUSH1 0x11 PUSH1 0x24 DUP3 ADD MSTORE PUSH17 0x20B63932B0B23C903BB4BA34323930BBB7 PUSH1 0x79 SHL PUSH1 0x44 DUP3 ADD MSTORE PUSH1 0x64 SWAP1 REVERT JUMPDEST SWAP1 PUSH1 0x1F DUP1 NOT SWAP2 ADD AND DUP2 ADD SWAP1 DUP2 LT PUSH8 0xFFFFFFFFFFFFFFFF DUP3 GT OR PUSH2 0xB80 JUMPI PUSH1 0x40 MSTORE JUMP JUMPDEST PUSH4 0x4E487B71 PUSH1 0xE0 SHL PUSH1 0x0 MSTORE PUSH1 0x41 PUSH1 0x4 MSTORE PUSH1 0x24 PUSH1 0x0 REVERT JUMPDEST RETURNDATASIZE ISZERO PUSH2 0xBD1 JUMPI RETURNDATASIZE SWAP1 PUSH8 0xFFFFFFFFFFFFFFFF DUP3 GT PUSH2 0xB80 JUMPI PUSH1 0x40 MLOAD SWAP2 PUSH2 0xBC5 PUSH1 0x1F DUP3 ADD PUSH1 0x1F NOT AND PUSH1 0x20 ADD DUP5 PUSH2 0xB5E JUMP JUMPDEST DUP3 MSTORE RETURNDATASIZE PUSH1 0x0 PUSH1 0x20 DUP5 ADD RETURNDATACOPY JUMP JUMPDEST PUSH1 0x60 SWAP1 JUMP JUMPDEST DUP1 SLOAD SWAP1 PUSH9 0x10000000000000000 DUP3 LT ISZERO PUSH2 0xB80 JUMPI PUSH1 0x1 DUP3 ADD DUP1 DUP3 SSTORE DUP3 LT ISZERO PUSH2 0xC04 JUMPI PUSH1 0x0 MSTORE PUSH1 0x20 PUSH1 0x0 KECCAK256 ADD SSTORE JUMP JUMPDEST PUSH4 0x4E487B71 PUSH1 0xE0 SHL PUSH1 0x0 MSTORE PUSH1 0x32 PUSH1 0x4 MSTORE PUSH1 0x24 PUSH1 0x0 REVERT JUMPDEST ISZERO PUSH2 0xC21 JUMPI JUMP JUMPDEST PUSH1 0x40 MLOAD PUSH3 0x461BCD PUSH1 0xE5 SHL DUP2 MSTORE PUSH1 0x20 PUSH1 0x4 DUP3 ADD MSTORE PUSH1 0xC PUSH1 0x24 DUP3 ADD MSTORE PUSH12 0x5A65726F2061646472657373 PUSH1 0xA0 SHL PUSH1 0x44 DUP3 ADD MSTORE PUSH1 0x64 SWAP1 REVERT JUMPDEST PUSH32 0x9B779B17422D0DF92223018B32B4D1FA46E071723D6817E2486D003BECC55F00 PUSH1 0x2 DUP2 SLOAD EQ PUSH2 0xC85 JUMPI PUSH1 0x2 SWAP1 SSTORE JUMP JUMPDEST PUSH1 0x40 MLOAD PUSH4 0x3EE5AEB5 PUSH1 0xE0 SHL DUP2 MSTORE PUSH1 0x4 SWAP1 REVERT JUMPDEST PUSH1 0x0 SLOAD PUSH1 0x1 PUSH1 0x1 PUSH1 0xA0 SHL SUB AND CALLER SUB PUSH2 0xCAB JUMPI JUMP JUMPDEST PUSH1 0x40 MLOAD PUSH4 0x118CDAA7 PUSH1 0xE0 SHL DUP2 MSTORE CALLER PUSH1 0x4 DUP3 ADD MSTORE PUSH1 0x24 SWAP1 REVERT INVALID LOG2 PUSH5 0x6970667358 0x22 SLT KECCAK256 JUMPDEST 0xC8 0xCE STATICCALL MLOAD SWAP10 0xA7 SMOD MCOPY SWAP15 0xD1 BYTE 0xC2 0xD3 0x4E BLOBHASH MSTORE8 COINBASE 0xE 0x24 SWAP6 0xE5 0x4B PUSH0 0xE9 0xC4 ADDMOD 0xAB JUMP 0xCF NUMBER 0x29 PUSH5 0x736F6C6343 STOP ADDMOD XOR STOP CALLER "},"methodIdentifiers":{"extendLock(uint256,uint256)":"070d66bf","feeRecipient()":"46904840","feeWei()":"428c090b","getLock(uint256)":"d68f4dd1","getLocksForOwner(address)":"b8f37ba1","lockCount()":"9b10b6f5","lockTokens(address,uint256,uint256)":"a25983e5","locks(uint256)":"f4dadc61","owner()":"8da5cb5b","renounceOwnership()":"715018a6","setFee(uint256)":"69fe0e2d","setFeeRecipient(address)":"e74b981b","transferLock(uint256,address)":"b48dd3be","transferOwnership(address)":"f2fde38b","withdraw(uint256)":"2e1a7d4d"}}}}}